:020000040800F2
:1000000070130020A9010008A92400088B1E000815
:10001000A524000821080008092A000800000000A3
:100020000000000000000000000000000D25000896
:100030002508000800000000E52400080F2500083E
:10004000C3010008C3010008C3010008C301000880
:10005000C3010008C3010008C3010008C301000870
:10006000C3010008C3010008C3010008C301000860
:10007000C3010008C3010008C3010008C301000850
:10008000C3010008C3010008C3010008000000000C
:10009000000000000000000000000000C301000894
:1000A000C3010008C3010008C3010008C301000820
:1000B000C3010008C3010008C3010008C301000810
:1000C000C3010008C3010008C3010008E9240008B7
:1000D000C3010008C3010008C301000800000000BC
:1000E000C3010008C3010008C301000800000000AC
:1000F000000000000000000000000000C301000834
:1001000000000000C3010008C3010008C30100088B
:1001100000000000000000000000000000000000DF
:10012000C3010008C3010008C3010008C30100089F
:10013000C3010008000000000000000000000000F3
:10014000000000000000000000000000C3010008E3
:10015000C3010008C3010008C3010008C30100086F
:10016000C3010008C30100080000000000000000F7
:10017000000000000000000000000000000000007F
:1001800000000000C30100080000000000000000A3
:10019000C3010008DFF80CD000F030FB0048004736
:1001A000493C000870130020064880470648004775
:1001B000FEE7FEE7FEE7FEE7FEE7FEE7FEE7FEE717
:1001C000FEE7FEE7D1250008950100082DE9F05F64
:1001D0000546002092469B468846064681464024B6
:1001E0001BE0284641464746224600F038FA53466F
:1001F0005A46C01A914110D311461846224600F0C3
:100200001FFA2D1A67EB01084F46224601200021F4
:1002100000F016FA17EB00094E41201EA4F101046C
:10022000DFDC484631462A464346BDE8F09F40EAB7
:1002300001039B0703D009E008C9121F08C0042A64
:10024000FAD203E011F8013B00F8013B521EF9D24B
:100250007047D2B201E000F8012B491EFBD2704773
:100260000022F6E710B513460A4604461946FFF782
:10027000F0FF204610BD2DE9FE4F804681EA0300C5
:10028000C00F0C46009021F0004123F00045B8EB70
:100290000200A94105D24046214690461C460B4625
:1002A000024623F00040104347D0270DC7F30A0051
:1002B000C3F30A510290401A019040286BDAC3F34D
:1002C000130040F4801B0098924620B10023D2EB2B
:1002D000030A63EB0B0B01985946C0F140025046EC
:1002E00000F0AEF906460D4650465946019A00F018
:1002F000C6F910EB08006141002487EA115284EA34
:10030000E7731A4340D0009A62B3019A012A4FEA78
:10031000075215DC001B61EB02014FF0004202EABC
:100320000752CDE90042001C41F5801132462B46B0
:1003300000F0FDF903B0BDE8F08F40462146F9E733
:10034000001B61EB0201001C41F5801300185B41AA
:100350002018A2F5001747EB030140EAD570B61943
:100360006D4111E06D084FEA360645EAC0754FEA67
:100370000752001B61EB0201001C41F58011490886
:100380004FEA30000019514132462B4603B0BDE818
:10039000F04F00F0BDB90098012240000023D0EBDF
:1003A000020263EBE073009821464FEAE074B8EB79
:1003B000000061EB0401E9E783F000435BE781F0B3
:1003C000004158E72DE9FE4F81EA030404F00044A0
:1003D00021F0004100944FF0000B23F0004350EA5D
:1003E00001045ED052EA03045BD0C3F30A54C1F3A4
:1003F0000A552C44A4F2F3340194A0FB0254C1F337
:10040000130141F48011C3F3130343F4801301FB80
:10041000024400FB034E840A970A44EA815447EAE7
:100420008357A4FB076802958D0A05FB07854FEAF1
:10043000932C04FB0C542705029D4FEA065847EA0B
:100440001637B5EB08056EEB070C870E920E47EAE0
:10045000811742EA8312A7FB0201B6EB0B0164EBA2
:1004600000042B0D43EA0C335E1844EB1C50DA46B3
:100470005146E7FB0201C5F313044FEA0B3343EA8D
:1004800014534FEA0432019C43EA0603A4F10C041E
:100490000294009CCDE900B400F049F903B0BDE836
:1004A000F08F00200146F9E72DE9F04D81EA0304C1
:1004B00004F0004B21F0004514464FF0000A23F0F1
:1004C000004150EA050220D054EA01021DD0C5F3D4
:1004D0000A570246C5F31303C1F31300C1F30A56CA
:1004E00040F4801543F48013A7EB0608101BD64692
:1004F00008F2FD3873EB050002D308F1010801E0B2
:1005000092185B41B8F1000F03DA00200146BDE804
:10051000F08D00204FF48011064684460EE0171B34
:1005200073EB050705D3121B63EB050306434CEA87
:10053000010C49084FEA300092185B4150EA01076C
:10054000EDD152EA030012D082EA040083EA0501E9
:10055000084305D0101BAB4106D20122002306E060
:1005600000224FF0004302E06FF0010253101AEB3B
:1005700006004CEB085110EB0A0041EB0B01BDE803
:10058000F04D00F0C5B800F0004230F000400AD055
:10059000C10D01F56071C0F3160042EA0151C208B5
:1005A00040071143704700200146704730B5041ED4
:1005B00071F1000404DB4FF00044404264EB0101A0
:1005C000141E73F1000405DB1C464FF00043524239
:1005D00063EB0403994208BF904230BD01F0004331
:1005E00030B421F0004150EA010206D00A0DA2F514
:1005F0006072C1F31301002A02DC30BC0020704796
:10060000440F44EAC104C100E01830BC00EBC25002
:1006100000F047B830B50B460146002020220124E7
:1006200009E021FA02F59D4205D303FA02F5491BC0
:1006300004FA02F52844151EA2F10102F1DC30BDD6
:10064000202A04DB203A00FA02F100207047914092
:10065000C2F1200320FA03F3194390407047202A87
:1006600004DB203A21FA02F00021704721FA02F35C
:10067000D040C2F120029140084319467047202A19
:1006800006DBCB17203A41FA02F043EAE07306E0BA
:1006900041FA02F3D040C2F12002914008431946CA
:1006A00070470029A8BF7047401C490008BF20F0D0
:1006B0000100704710B4B0FA80FC00FA0CF050EA68
:1006C000010404BF10BC704749B1CCF1200421FAE9
:1006D00004F411FA0CF118BF012121430843A3EBE4
:1006E0000C01CB1D4FEA00614FEA102042BF0020F1
:1006F00010BC704700EBC35010440029A4BF10BCCD
:100700007047401C490008BF20F0010010BC704732
:1007100010B5141E73F1000408DA401C41F1000109
:1007200092185B411A4301D120F0010010BD2DE960
:10073000F04D92469B4611B1B1FA81F202E0B0FA57
:1007400080F220329046FFF77BFF04460F4640EAD6
:100750000A0041EA0B0153465A46084313D011469A
:1007600053EA010019D0C8F140025046FFF777FF65
:1007700005460E46504659464246FFF761FF08437C
:1007800005D0012004E020463946BDE8F08D002068
:10079000054346EAE0762C4337430A986305E40AAA
:1007A000A0EB08000022FD0A44EA47540A3002D5B3
:1007B00000200146E9E7010510196941DDE9084516
:1007C00000196941BDE8F04DA2E7C1F30A52C1F337
:1007D000130140F2FF3341F480119A4202DA002003
:1007E0000146704740F233439A42A2F2334202DCA0
:1007F0005242FFF734BFFFF723BF0000064C074DFE
:1008000006E0E06840F0010394E8070098471034E0
:10081000AC42F6D3FFF7C2FCBC460008DC46000839
:1008200000BFFEE77047704700B52DED060B2DEDBC
:100830000A8B87B0DDED162A9DED152ADDED141A21
:100840009DED131ADDED120A9DED110A03F0D8FBA0
:100850008DED040ACDED050A8DED061ADDED132AA6
:100860009DED122ADDED111A9DED061ADDED050A4A
:100870009DED040A03F0C4FB8DED010ACDED020AE3
:100880008DED031A9DED010A10EE101A0846FFF7D0
:100890007AFE41EC1B0B9DED020A10EE101A084681
:1008A000FFF771FE41EC1C0BB0EE4B1AF0EE6B1A29
:1008B000B0EE4C0AF0EE6C0A02F042FAB0EE40AA3A
:1008C000F0EE60AA9FED0D0B53EC102B51EC1A0BC0
:1008D000FFF778FD41EC190B9FED0A0B53EC102B41
:1008E000FFF7E2FD41EC180BFFF778FE00EE100A6F
:1008F00007B0BDEC0A8B06B000BD00000000000090
:1009000000806640F1D4C853FB210940014691F8AC
:100910003500022803D0802048650120704705205B
:1009200081F835000868006820F001000A6810604E
:100930000020F3E770B5044600F008F906462546A6
:10094000681C10B104480078054400BF00F0FEF8B0
:10095000801BA842FAD370BD60000020F8B50346A2
:100960000A460025002400200021CDE0012606FAD9
:1009700001F5166806EA0504AC4273D15668022EEA
:1009800002D05668122E13D1CF0803F1200656F874
:1009900027004E07F70E0F26BE40B0434F07FF0E4D
:1009A0001669BE403043CF0803F1200646F8270001
:1009B00018684F000326BE40B043167906F00306C0
:1009C0004F00BE40304318605668012E08D056686C
:1009D000022E05D05668112E02D05668122E13D161
:1009E00098684F000326BE40B0434F00D668BE4013
:1009F00030439860586801268E40B0431679C6F39C
:100A000000168E4030435860D8684F000326BE4021
:100A1000B0434F009668BE403043D860566806F039
:100A20008056B6F1805F6ED100BF00260096384E2A
:100A3000366846F48046364F3E603E46366806F4D9
:100A40008046009600BF00BF324E8F0856F8270040
:100A50008E07370F0F26BE40B0432F4EB34202D150
:100A6000002615E04FE02D4EB34201D101260FE0E4
:100A70002B4EB34201D102260AE02A4EB34201D1E5
:100A8000032605E0284EB34201D1042600E00726E4
:100A90008F073F0FBE4030431E4E8F0846F8270099
:100AA000224E3068A043566806F48036B6F5803F83
:100AB00000D120431D4E3060361D3068A04356687B
:100AC00006F40036B6F5003F00D12043174E361D20
:100AD0003060361D3068A043566806F48016B6F5BF
:100AE000801F00D12043114E08363060361D30681B
:100AF000A043566806F40016B6F5001F00D1204347
:100B00000A4E0C363060491C1029FFF42FAFF8BD97
:100B1000443802400838014000000240000402400E
:100B200000080240000C024000100240003C01405E
:100B3000024613690B400BB1012000E00020704712
:100B40000AB1816101E00B048361704701480068CC
:100B5000704700005800002070B5044600260025AC
:100B60000CB9012070BD94F83D0028B9002084F82C
:100B70003C00204600F0DCFA242084F83D00206888
:100B8000006820F001002168086000F0AFFC054615
:100B90003948B5FBF0F620684660384960688842FD
:100BA00001D8701C07E04FF4967070434FF47A71CF
:100BB000B0FBF1F0401C216808623049606888424F
:100BC0000ED860684000B5FBF0F0C0F30B000428BD
:100BD00001D204202DE060684000B5FBF0F028E071
:100BE000A06828B9606800EB4000B5FBF0F008E0B1
:100BF000606800EBC00101EB0010B5FBF0F040F4C1
:100C00008040C0F30B0008B9012012E0A06828B9A9
:100C1000606800EB4000B5FBF0F008E0606800EBB6
:100C2000C00101EB0010B5FBF0F040F4804040F44F
:100C300000402168C861D4E90701084321680860C1
:100C4000D4E90310084321688860D4E9050108430A
:100C50002168C8602068006840F0010021680860D1
:100C600000202064202084F83D000020206384F8C8
:100C70003E0000BF76E7000040420F00A086010062
:100C80002DE9FC5F04460F4690469946DDE90CAB22
:100C90000E9E0025FFF75AFF054694F83D002028D8
:100CA0007ED119230122BD492046009501F051FA59
:100CB00010B10220BDE8FC9F00BF94F83C00012861
:100CC00001D10220F6E7012084F83C0000BF206833
:100CD000006800F0010028B92068006840F00100B9
:100CE000216808602068006820F4006021680860BE
:100CF000222084F83D00402084F83E00002020643B
:100D0000C4F824A0A4F82AB0A548E062608D20852C
:100D10004B46424639462046CDE9006501F0D2F8FF
:100D200080B1206C042806D100BF002084F83C006C
:100D300000BF0120BEE700BF002084F83C0000BFD8
:100D40000320B7E7208D88B900BF002001902068FC
:100D50004069019020688069019000BF00BF206851
:100D6000006840F400702168086041E0208D01288F
:100D700019D12068006820F480602168086000BFF5
:100D800000200190206840690190206880690190EE
:100D900000BF00BF2068006840F40070216800E0D8
:100DA000FAE0086024E0208D022816D1206800684F
:100DB00020F48060216808602068006840F40060CA
:100DC0002168086000BF0020019020684069019000
:100DD00020688069019000BF0AE000BF00200190F8
:100DE00020684069019020688069019000BF00BFC1
:100DF000C3E0208D032872D8208D01281AD12A46FD
:100E00003146204601F039FA30B1206C202801D15A
:100E100003204FE701204DE720680069C1B2626AF4
:100E2000501C60621170208D401E2085608D401E18
:100E30006085A2E0208D02282AD13346002259493C
:100E40002046009501F085F908B1032032E72068BB
:100E5000006840F400702168086020680069C1B231
:100E6000626A501C60621170208D401E2085608D6A
:100E7000401E608520680069C1B2626A501C6062D1
:100E80001170208D401E2085608D401E608574E0AD
:100E90003346002243492046009501F05AF908B133
:100EA000032007E72068006820F48060216808605C
:100EB00020680069C1B2626A501C60621170208DA6
:100EC000401E2085608D401E6085334600223549D6
:100ED0002046009501F03DF910B10320EAE620E03C
:100EE0002068006840F4007021680860206800698C
:100EF000C1B2626A501C60621170208D401E208554
:100F0000608D401E608520680069C1B2626A501C15
:100F100060621170208D401E2085608D401E6085AE
:100F20002BE02A463146204601F0A7F930B1206C6B
:100F3000202801D10320BDE60120BBE6206800691E
:100F4000C1B2626A501C60621170208D401E208503
:100F5000608D401E608520684069C0F3800060B1EC
:100F600020680069C1B2626A501C60621170208DF5
:100F7000401E2085608D401E6085208D00287FF4F6
:100F800038AF202084F83D00002084F83E0000BFE8
:100F900084F83C0000BF8DE602208BE602001000C2
:100FA0000000FFFF040001002DE9FC5F04460F462E
:100FB00090469946DDE90CAB0E9E0025FFF7C6FD75
:100FC000054694F83D0020287ED119230122564978
:100FD0002046009501F0BDF810B10220BDE8FC9F4D
:100FE00000BF94F83C00012801D10220F6E701205F
:100FF00084F83C0000BF2068006800F0010028B9B8
:101000002068006840F001002168086020680068DE
:1010100020F4006021680860212084F83D00402011
:1010200084F83E0000202064C4F824A0A4F82AB06C
:101030003E48E062608D20854B4642463946204658
:10104000CDE9006500F0EAFF80B1206C042806D1EC
:1010500000BF002084F83C0000BF0120BEE700BFB5
:10106000002084F83C0000BF0320B7E733E02A46A5
:101070003146204601F038F960B1206C042807D1D0
:101080002068006840F40070216808600120A5E72E
:101090000320A3E7616A481C606208782168086140
:1010A000208D401E2085608D401E6085206840692F
:1010B000C0F3800078B1208D68B1616A481C60621D
:1010C00008782168086100E02CE0208D401E208512
:1010D000608D401E6085208D0028C8D12A4631468B
:1010E000204601F00BF860B1206C042807D120687D
:1010F000006840F400702168086001206EE703205A
:101100006CE72068006840F40070216808602020C7
:1011100084F83D00002084F83E0000BF84F83C00C5
:1011200000BF5BE7022059E7020010000000FFFF4C
:1011300010B586B00446142101A8FFF791F81B49A9
:101140002068884230D100BF002000901848006815
:1011500040F00200164908600846006800F00200EE
:10116000009000BF00BF4FF4407001901220029029
:1011700001200390032004900420059001A90D484C
:10118000FFF7ECFB00BF002000900948103000681A
:1011900040F400100649103108600846006800F469
:1011A0000010009000BF00BF06B010BD005400400A
:1011B00030380240000402400348006803490978BF
:1011C0000844014908607047580000206000002072
:1011D00010B50D48006840F400700B4908600846DF
:1011E000006840F4806008600846006840F4807041
:1011F0000860032000F0A0F8002000F007F800F0DD
:101200002BF8002010BD0000003C024070B50446E1
:101210000E4800784FF47A71B1FBF0F00C49096880
:10122000B1FBF0F5284600F02DFD08B1012070BD9E
:10123000102C07D200222146501E00F03EF805482F
:10124000046001E00120F2E70020F0E760000020E8
:10125000640000205C00002008B500BF0020009062
:101260000E48006840F480400C4908600846006859
:1012700000F48040009000BF00BF00BF002000903D
:10128000081F006840F08050091F08600846006889
:1012900000F08050009000BF00BF08BD44380240FD
:1012A00000BF00F01F02012191404209920002F1AB
:1012B000E022C2F8001100BF70472DE9F05F8046C0
:1012C0000D461646002701F0F1F8074639462A4632
:1012D000334601F00700C0F1070ABAF1040F02D942
:1012E0004FF0040A01E0C0F1070AD14600F1040AF8
:1012F000BAF1070F02D24FF0000A01E0A0F1030A91
:10130000D4464FF0010A0AFA09FAAAF1010A0AEAD8
:10131000020A0AFA0CFA4FF0010B0BFA0CFBABF1C4
:10132000010B0BEA030B4AEA0B042146404601F08D
:10133000C5F8BDE8F09F000000BF00F00702064BB3
:1013400019684FF6FF031940044B0B4343EA02218F
:10135000014B196000BF70470CED00E00000FA057A
:1013600070B504460D460CB9012070BD58480068A0
:1013700000F00F00A84209D255490D7008460068D8
:1013800000F00F00A84201D00120EEE7207800F025
:10139000020002281DD1207800F00400042805D1A5
:1013A0004C48006840F4E0504A490860207800F05A
:1013B0000800082805D14748006840F460404549C6
:1013C00008604448006820F0F000A16808434149E3
:1013D0000860207800F00100A8B36068012807D1F8
:1013E0003C4808380068C0F34040B8B90120BCE769
:1013F0006068022802D06068032807D135480838A1
:101400000068C0F3406048B90120AEE731480838B1
:101410000068C0F3400008B90120A6E72D48006825
:1014200020F00300616808432A490860FFF78EFB3B
:10143000064609E0FFF78AFB801B41F288318842AB
:1014400002D9032091E707E02248006800F00C0071
:101450006168B0EB810FEDD11D48006800F00F000E
:10146000A84209D91A490D700846006800F00F001B
:10147000A84201D0012078E7207800F00400042879
:1014800007D11448006820F4E050E168084311498E
:101490000860207800F00800082808D10D4800688E
:1014A00020F46040216940EAC1000A49086000F068
:1014B0003DF808490968C1F30311074A515CC84067
:1014C000064908600020FFF7A1FE00204DE700005C
:1014D000003C024008380240B64500086400002085
:1014E00001480068704700006400002000B5FFF765
:1014F000F7FF04490968C1F38221034A515CC840DF
:1015000000BD000008380240C645000800B5FFF7DE
:10151000E7FF04490968C1F34231034A515CC840FE
:1015200000BD000008380240C64500082DE9F0471C
:10153000002400250026A1462548006800F00C0084
:1015400020B1042805D008283AD105E0DFF88490BE
:1015500039E0DFF8849036E01D48001F006800F095
:101560003F041B48001F006800F4800078B11A484F
:101570001749091F0968C1F38811A0FB01700146D2
:10158000224600233846FEF721FE05460EE01148AC
:101590000F49091F0968C1F38811A0FB01700146BA
:1015A000224600233846FEF711FE05460848001F74
:1015B0000068C0F30140401C4600B5FBF6F902E0AC
:1015C000DFF8109000BF00BF4846BDE8F08700007C
:1015D000083802400024F40040787D01F8B5044644
:1015E0000CB90120F8BD207800F00100002874D06B
:1015F000F948006800F00C0004280DD0F648006897
:1016000000F00C00082813D1F348001F006800F414
:101610008000B0F5800F0BD1EF4808380068C0F3A8
:101620004040002859D06068002856D10120D9E7F1
:1016300000BF6068B0F5803F08D1E748083800680F
:1016400040F48030E449083908601EE06068B0F575
:10165000A02F0DD1E0480838006840F48020DE4912
:10166000083908600846006840F4803008600CE0E3
:10167000D9480838006820F48030D7490839086014
:101680000846006820F48020086000BF606890B1C0
:10169000FFF75CFA054606E0FFF758FA401B64289E
:1016A00001D903209EE7CC4808380068C0F34040C9
:1016B0000028F1D011E0FFF749FA054606E0FFF7F0
:1016C00045FA401B642801D903208BE7C24808383B
:1016D0000068C0F340400028F1D1207800F00200FB
:1016E00002285FD1BC48006800F00C0058B1BA482D
:1016F000006800F00C0008281CD1B748001F0068E3
:1017000000F48000B0B9B44808380068C0F3400065
:1017100020B1E068012801D0012063E7AE48083815
:10172000006820F0F800216940EAC100AA490839A0
:10173000086037E0E06800B30120A8490860FFF7BF
:1017400005FA054606E0FFF701FA401B022801D919
:10175000032047E7A04808380068C0F3400000288D
:10176000F1D09D480838006820F0F800216940EA6F
:10177000C10099490839086014E0002097490860C1
:10178000FFF7E4F9054606E0FFF7E0F9401B022801
:1017900001D9032026E7904808380068C0F34000CC
:1017A0000028F1D1207800F0080008282CD16069C9
:1017B000A8B101208A490860FFF7C8F9054606E08C
:1017C000FFF7C4F9401B022801D903200AE7824829
:1017D0006C300068C0F340000028F1D014E0002015
:1017E0007F490860FFF7B2F9054606E0FFF7AEF95A
:1017F000401B022801D90320F4E677486C300068CA
:10180000C0F340000028F1D1207800F00400042843
:1018100070D1002670483830006800F0805090B9D0
:1018200000BF002000906C483830006840F08050C5
:101830006949383108600846006800F0805000901F
:1018400000BF00BF01266748006800F48070B0B98F
:101850006448006840F4807062490860FFF776F9D8
:10186000054606E0FFF772F9401B022801D9032064
:10187000B8E65C48006800F480700028F2D000BF31
:10188000A068012808D154486830006840F0010081
:101890005149683108601DE0A06805280DD14E4807
:1018A0006830006840F004004B4968310860084621
:1018B000006840F0010008600CE0474868300068AC
:1018C00020F001004449683108600846006820F0B3
:1018D0000400086000BFA068A8B1FFF737F905460B
:1018E00009E0FFF733F9401B41F28831884202D901
:1018F000032077E626E0384868300068C0F34000EF
:101900000028EED013E0FFF721F9054608E0FFF7C5
:101910001DF9401B41F28831884201D9032061E65C
:101920002D4868300068C0F340000028EFD1012E38
:1019300007D129483830006820F0805026493831D6
:10194000086000BFA069B8B32348006800F00C002D
:1019500008285ED0A069022846D100201F490866E9
:10196000FFF7F4F8054606E0FFF7F0F8401B022801
:1019700001D9032036E6184808380068C0F34060F3
:101980000028F1D1D4E907010843616A40EA8111D6
:101990000122A06AC2EB500041EA00412C20005D08
:1019A00041EA00600C49091F086001200B490866E4
:1019B000FFF7CCF8054607E02DE0FFF7C7F8401B1E
:1019C000022801D903200DE6034808380068C0F357
:1019D00040600028F1D01EE0083802400000474275
:1019E000800E47420070004000200C490866FFF757
:1019F000ADF8054606E0FFF7A9F8401B022801D91B
:101A00000320EFE506480068C0F340600028F2D1EB
:101A100001E00120E6E50020E4E500000000474287
:101A20000038024070470000F8B504462068466858
:101A30002068856805F0400048B905F0010030B124
:101A400006F0400018B12046216C8847F8BD05F02B
:101A5000020030B106F0800018B12046616C884762
:101A6000F4E705F4B070002876D006F020000028D6
:101A700072D005F04000F0B194F8510003280ED068
:101A8000606D40F00400606500BF00200090206899
:101A9000C068009020688068009000BF0BE000BF25
:101AA000002000902068C068009020688068009046
:101AB00000BF00BFCAE705F0200088B1606D40F0AC
:101AC0000100606500BF00200090206880680090E1
:101AD0002068006820F040002168086000BF00BF57
:101AE00005F4807058B1606D40F00800606500BF7B
:101AF0000020009020688068009000BF00BF606DEB
:101B000020B32068406820F0E00021684860012090
:101B100084F8510006F0020010B906F00100B8B1D7
:101B20002068406820F0030021684860E06C28B11C
:101B30000A48E16C0865E06CFEF7E8FEA06C28B18D
:101B40000648A16C0865A06CFEF7E0FE03E003E028
:101B50002046FFF767FF79E700BF77E7F924000821
:101B600010B504460CB9012010BD606A00B900BF71
:101B70000021A16294F8510028B9002084F8500097
:101B8000204600F033F8022084F8510020680068F5
:101B900020F0400021680860D4E901010843E168B1
:101BA00008432169084361690843218B01F40071EE
:101BB0000843E1690843216A0843A16A0843216890
:101BC00008600421A06901EA1040616A08432168A5
:101BD00048602068C06920F400602168C861002066
:101BE0006065012084F851000020BDE710B586B083
:101BF0000446142101A8FEF733FB1F4920688842E0
:101C000037D100BF002000901C48006840F480508D
:101C10001A4908600846006800F48050009000BF30
:101C200000BF00BF0020009014481438006840F046
:101C300001001249143908600846006800F00100EC
:101C4000009000BF00BFE020019002200290002021
:101C50000390032004900520059001A90848FEF791
:101C60007DFE002211462320FFF727FB2320FFF7EC
:101C700017FB06B010BD00000030014044380240A0
:101C80000000024070B504462546681EB0F1807F12
:101C900001D301200FE0681E4FF0E02148610F21C1
:101CA0004FF0FF3000F00AFC00204FF0E021886187
:101CB00007200861002070BD10B504460CB9012052
:101CC00010BDA06900B100E000BF94F8390028B948
:101CD000002084F83800204600F028F8242084F8FA
:101CE00039002068C06820F400502168C860204690
:101CF00000F0A0FC2068006920F490402168086191
:101D00002068406920F02A00216848612068C06886
:101D100040F400502168C8600020E063202084F86F
:101D2000390084F83A000020CAE7000010B586B0F8
:101D30000446142101A8FEF793FA1B492068884243
:101D400030D100BF002000901848006840F010001B
:101D5000164908600846006800F01000009000BFB7
:101D600000BF00BF0020009010481438006840F009
:101D700001000E49143908600846006800F00100AF
:101D8000009000BF00BF4FF4C0600190022002909D
:101D900001200390032004900720059001A9044826
:101DA000FEF7DCFD06B010BD0010014044380240D3
:101DB000000002402DE9F84304460D4616461F4632
:101DC0004FF0000994F8390020285CD105B116B90C
:101DD0000120BDE8F88300BF94F83800012801D144
:101DE0000220F6E7012084F8380000BF0020E063FD
:101DF000212084F83900FEF7A9FE8146A684E684F6
:101E00002BE0E08C401EE084A068B0F5805F16D126
:101E10004B46002280212046009700F0BFFD08B10C
:101E20000320D6E7A846B8F80000C0F308002168F0
:101E30004860206908B9AD1C0FE06D1C0DE04B46F1
:101E4000002280212046009700F0A8FD08B1032061
:101E5000BFE715F8010B21684860E08C0028D0D15D
:101E60004B46002240212046009700F097FD08B124
:101E70000320AEE7202084F8390000BF002084F85A
:101E8000380000BFA5E70220A3E700BFFEE7014638
:101E900008684069C0F3802088B16FF480600A68E8
:101EA00050610420086400200863202081F83D0070
:101EB00000BF002081F83C0000BF012070470020D7
:101EC000FCE700002DE9F84304460F461546994605
:101ED000DDE908862068006840F4806021680860B9
:101EE0002068006840F48070216808604346002242
:101EF0004FF001112046009600F02BF910B103209D
:101F0000BDE8F88307F0FE002168086133464246C9
:101F10004149204600F05BF930B1206C042801D122
:101F20000120EDE70320EBE700BF002000902068D0
:101F30004069009020688069009000BF00BF324671
:101F40004146204600F0D0F960B1206C042807D14A
:101F50002068006840F40070216808600120CFE725
:101F60000320CDE7B9F1010F03D1E8B22168086180
:101F700019E0C5F307202168086132464146204632
:101F800000F0B2F960B1206C042807D12068006825
:101F900040F40070216808600120B1E70320AFE73A
:101FA000E8B22168086132464146204600F09CF9BB
:101FB00060B1206C042807D12068006840F40070EC
:101FC0002168086001209BE7032099E720680068EA
:101FD00040F4807021680860434600224FF00111F0
:101FE0002046009600F0B5F808B1032088E7F8B263
:101FF00040F0010021680861334642460649204608
:1020000000F0E5F830B1206C042801D1012077E719
:10201000032075E7002073E7020001002DE9F84373
:102020000446884615469946DDE908672068006839
:1020300040F4807021680860334600224FF001119F
:102040002046009700F085F810B10320BDE8F88322
:1020500008F0FE00216808613B46324626492046CA
:1020600000F0B5F830B1206C042801D10120EDE773
:102070000320EBE700BF002000902068406900903B
:1020800020688069009000BF00BF3A463146204674
:1020900000F02AF960B1206C042807D1206800689C
:1020A00040F40070216808600120CFE70320CDE7ED
:1020B000B9F1010F03D1E8B22168086119E0C5F355
:1020C0000720216808613A463146204600F00CF9A5
:1020D00060B1206C042807D12068006840F40070CB
:1020E000216808600120B1E70320AFE7E8B221686A
:1020F00008610020AAE700000200010070B5044654
:102100000D4616461DE02046FFF7C1FE08B101202E
:1021100070BD681CA8B125B1FEF718FD801BA84250
:102120000FD9206C40F02000206400202063202084
:1021300084F83D0000BF002084F83C0000BF03206D
:10214000E6E720684069C0F380000028DBD000206B
:10215000DEE72DE9F04104460D4617461E46DDF840
:10216000188017E0701CA8B12EB1FEF7EFFCA0EBB1
:102170000800B0420ED900202063202084F83D00E2
:10218000002084F83E0000BF84F83C0000BF03201C
:10219000BDE8F081C5F3074001280AD120684069F5
:1021A000A9B20840A9B2884201D101200BE0002069
:1021B00009E020688069A9B20840A9B2884201D12B
:1021C000012000E00020B842CCD00020E0E72DE95B
:1021D000F04104460D4616461F4631E0206840692E
:1021E000C0F38020C0B12068006840F4007021680E
:1021F00008606FF48060216848610420206400203A
:102200002063202084F83D0000BF002084F83C00BB
:1022100000BF0120BDE8F081701C88B126B1FEF737
:1022200095FCC01BB0420BD900202063202084F80D
:102230003D0000BF002084F83C0000BF0320E9E718
:10224000C5F3074001280AD120684069A9B20840B7
:10225000A9B2884201D101200BE0002009E02068EA
:102260008069A9B20840A9B2884201D1012000E0EA
:1022700000200028B2D00020CCE770B504460D46FF
:10228000164629E020684069C0F3001080B16FF065
:10229000100021684861002020642063202084F819
:1022A0003D0000BF002084F83C0000BF012070BD4D
:1022B00025B1FEF74BFC801BA8420DD9206C40F0E5
:1022C00020002064202084F83D0000BF002084F816
:1022D0003C0000BF0320EAE720684069C0F380109B
:1022E0000028CFD00020E2E770B504460D46164620
:1022F0001DE02046FFF7CBFD08B1012070BD681C32
:10230000A8B125B1FEF722FC801BA8420FD9206C92
:1023100040F02000206400202063202084F83D004D
:1023200000BF002084F83C0000BF0320E6E72068DF
:102330004069C0F3C0100028DBD00020DEE70000B9
:1023400000B587B0142102A8FDF78AFF00BF002066
:1023500001902348006840F0800021490860084649
:10236000006800F08000019000BF00BF00BF0020A7
:1023700001900846006840F00100086008460068C7
:1023800000F00100019000BF00BF00BF00200190DD
:102390000846006840F0020008600846006800F047
:1023A0000200019000BF00BF002240210D48FEF74F
:1023B000C7FB0120029000200390049002A9094865
:1023C000FEF7CCFA402002900120039000200490F8
:1023D000059002A90348FEF7C1FA07B000BD00004E
:1023E000303802400004024010B50B480B49086029
:1023F0000B484860002109488160C1604FF480416A
:102400000161002141618161C1610162FEF7A4FBAC
:1024100008B1FEF708FA10BD00540040840E0020F9
:10242000A086010010B50F480F4908604FF4827074
:10243000486000210C488160C160022101610121D6
:102440004161490281611021C16100210162416243
:1024500081620A21C162FFF783FB08B1FEF7E3F94D
:1024600010BD000000300140D80E002010B50B4810
:102470000B4908604FF4E130486000210848816052
:10248000C16001610C21416100218161C161FFF7DF
:1024900013FC08B1FEF7C7F910BD000000100140A1
:1024A000300F002000BFFEE77047000002480068C0
:1024B000C0F30220704700000CED00E010B50028CA
:1024C00007DA0A07140E054A00F00F031B1FD45445
:1024D00003E00A07130E024A135410BD18ED00E082
:1024E00000E400E07047000010B50248FFF79CFAD6
:1024F00010BD0000D80E002070B50546AC6B002062
:10250000E087E0862046FFF78DFA70BD704710B572
:10251000FEF752FE10BD000000B593B0302107A8B1
:10252000FDF79EFE142102A8FDF79AFE00BF0020D1
:1025300001902548006840F0805023490860084613
:10254000006800F08050019000BF00BF00BF002075
:1025500001901E48006820F4404040F400401B49B0
:1025600008600846006800F44040019000BF00BFCA
:102570000220079001200A9010200B9002200D905D
:1025800000210E9108210F915421109102211191E7
:102590000421129107A8FFF721F808B1FEF743F9CB
:1025A0000F20029002200390002004904FF48050EE
:1025B000059000200690022102A8FEF7D1FE08B186
:1025C000FEF731F913B000BD403802400070004002
:1025D0001448006840F4700012490860124800680E
:1025E00040F001001049086000200F4908310860E0
:1025F0000D4800680D4908400B4908600C48091D4A
:102600000860081F006820F48020091F086000206F
:1026100005490C3108604FF00060024980390860BC
:102620007047000088ED00E000380240FFFFF6FE32
:10263000103000242DE9F04104460025206805698A
:1026400025F44055E0680543206805612068C568A9
:1026500049F20C6085432169A06808436169084319
:10266000E169084305432068C5602068456925F491
:102670004075A069054320684561E069B0F5004FE9
:102680007ED1C4492068884203D0C349206888426B
:102690005DD1FEF73BFF00EBC00101EB001061686C
:1026A0004900B0FBF1F06421B0FBF1F00601FEF748
:1026B0002DFF00EBC00101EB001061684900B0FB89
:1026C000F1F7FEF723FF00EBC00101EB001061689A
:1026D0004900B0FBF1F06421B0FBF1F000EBC00168
:1026E00001EB0010A7EB8000322101EBC000642158
:1026F000B0FBF1F000F0F80006EB4006FEF706FF35
:1027000000EBC00101EB001061684900B0FBF1F77C
:10271000FEF7FCFE00EBC00101EB00106168490010
:10272000B0FBF1F06421B0FBF1F000EBC00101EB74
:102730000010A7EB8000322101EBC0006421B0FB48
:10274000F1F000F0070030442168886020E1FEF7D6
:10275000CDFE00EBC00101EB001061684900B0FB49
:10276000F1F06421B0FBF1F00601FEF7BFFE00EBD3
:10277000C00101EB001061684900B0FBF1F700E017
:1027800045E0FEF7B3FE00EBC00101EB001061680D
:102790004900B0FBF1F06421B0FBF1F000EBC001A7
:1027A00001EB0010A7EB8000322101EBC000642197
:1027B000B0FBF1F000F0F80006EB4006FEF796FEE5
:1027C00000EBC00101EB001061684900B0FBF1F7BC
:1027D000FEF78CFE00EBC00101EB001061684900C0
:1027E000B0FBF1F06421B0FBF1F000EBC00101EBB4
:1027F0000010A7EB8000322101EBC0006421B0FB88
:10280000F1F000F00700304421688860C0E06149C1
:102810002068884203D06049206888425CD1FEF776
:1028200075FE00EBC00101EB001061688900B0FB90
:10283000F1F6FEF76BFE00EBC00101EB00106168E2
:102840008900B0FBF1F06421B0FBF1F000EBC001B6
:1028500001EB0010A6EB8000322101EB0010642197
:10286000B0FBF1F000F0F006FEF750FE00EBC00107
:1028700001EB001061688900B0FBF1F06421B0FB4E
:10288000F1F006EB0016FEF741FE00EBC00101EB94
:10289000001061688900B0FBF1F7FEF737FE00EB2E
:1028A000C00101EB001061688900B0FBF1F0642108
:1028B000B0FBF1F000EBC00101EB0010A7EB8000D2
:1028C000322101EB00106421B0FBF1F000F00F00A9
:1028D0003044216888605BE0FEF708FE00EBC00131
:1028E00001EB001061688900B0FBF1F6FEF7FEFD18
:1028F00000EBC00101EB001061688900B0FBF1F052
:102900006421B0FBF1F000EBC00101EB0010A6EB7D
:102910008000322101EB00106421B0FBF1F000F0E7
:10292000F006FEF7E3FD00EBC00101EB001061686B
:102930008900B0FBF1F06421B0FBF1F006EB00166A
:10294000FEF7D4FD00EBC00101EB001061688900C7
:10295000B0FBF1F7FEF7CAFD00EBC00101EB001080
:1029600061688900B0FBF1F06421B0FBF1F000EB8D
:10297000C00101EB0010A7EB8000322101EB001039
:102980006421B0FBF1F000F00F0030442168886052
:10299000BDE8F08100100140001401402DE9F04134
:1029A00004460D4617469846069E21E0701CF8B175
:1029B0002EB1FEF7CBF8A0EB0800B04218D9206882
:1029C000C06820F4D0702168C8602068406920F099
:1029D000010021684861202084F8390084F83A0019
:1029E00000BF002084F8380000BF0320BDE8F0815C
:1029F000206800682840A84201D1012000E00020A2
:102A0000B842D3D00020F1E700BFFEE70FB4084B77
:102A100010B504A902AA039800F0FCFB044602A921
:102A2000002000F08EFF204610BC5DF814FB000073
:102A30004339000803B401984100009850EAC120CE
:102A400018BF04204A0D18BF40F0010040F2FF7289
:102A5000B2EB515F08BF40F00200012808BF05201B
:102A600002B070470000000070B59B482DED020BCE
:102A70002DED068B079D25F00044A04218DC9748F9
:102A8000844202DC0AD1069840B19DED060BBDECF4
:102A9000068B02B0BDE8704000F0C6BA002DCCBF76
:102AA0009FED8F0B9FED900BBDEC068B02B070BDC0
:102AB0008F48A04215DD8F48A042D8BF4FF0FF34A9
:102AC00058DD9DED060B51EC100BFFF7B3FF04280A
:102AD00008BF00F0BDFA9DED060BBDEC068B02B001
:102AE00070BD9DED060B51EC100B00F037FFCDE9EA
:102AF000060181489FED828BA0423CDD8248A042C6
:102B00001FDD00249FED82AB9DED060B53EC1A2BCD
:102B100051EC100BFDF7AFFB9DED060B41EC190BD3
:102B200053EC1A2B51EC100BFDF74CFC53EC182B0B
:102B3000FDF742FC53EC192BFDF7B6FCCDE906017D
:102B400049E09DED060B012453EC182B51EC100BC2
:102B5000FDF791FB9DED060B41EC190B53EC182B87
:102B600051EC100BFDF728FC53EC192BFDF79CFCE6
:102B7000CDE906012FE06848A0421FDD02249FED49
:102B8000689B9DED060B53EC192B51EC100BFDF7D8
:102B900019FC53EC182BFDF76EFB9DED060B41EC79
:102BA000180B53EC192B51EC100BFDF705FC53ECF3
:102BB000182BFDF779FCCDE906010CE09DED060B25
:102BC000032453EC102B9FED580B51EC100BFDF729
:102BD0006BFCCDE906019DED060B53EC102B51EC7F
:102BE000100BFDF7EFFB41EC180B53EC182BFDF726
:102BF000E9FB41EC190B4E480621B0EE490AF0EE14
:102C0000690A784400F094F953EC182B51EC100B3E
:102C1000FDF7D8FB41EC180B4648B0EE490AF0EE40
:102C2000690A0521784400F083F953EC192B51EC23
:102C3000100BFDF7C7FB41EC100B51EC180B53ECDC
:102C4000102B002C0EDAFDF716FB9DED061B53EC46
:102C5000112BFDF7B7FB9DED061B53EC112BFDF778
:102C6000AEFB35E0FDF707FB9DED061B53EC112B8A
:102C7000FDF7A8FB41EC100B2F48784400EBC40093
:102C800090ED001B51EC100B53EC112BFDF794FB56
:102C90009DED061B53EC112BFDF78EFB41EC100B49
:102CA0002648784400EBC40090ED001B51EC100B5B
:102CB00053EC112BFDF783FB41EC100B002DA2BF51
:102CC000BDEC068B02B070BD51EC100B81F00041E1
:102CD00041EC100B01E70000000010440000F07F01
:102CE000182D4454FB21F93F182D4454FB21F9BF02
:102CF0000000DC3F0000203E0000F33F0000000029
:102D0000000000000000F03F0000E63F000000006F
:102D100000000000000000400080034000000000B0
:102D2000000000000000F83F000000000000F0BFBD
:102D3000321A0000E8190000721900002A19000078
:102D400070B56B4E2DED040B2DED028B82B0DDF8CE
:102D50001CC0DDE905235C422CF000411C4341EA24
:102D6000D474049D22F00040B44205D86C422C4338
:102D700040EAD474B4420BD99DED061B9DED040BC3
:102D800002B0BDEC028B04B0BDE8704000F056B953
:102D9000ACF14054A4F17F641C430BD0022404EA3C
:102DA000AC7444EAD27405439FED538B9FED542BD2
:102DB00007D015E09DED040B51EC100B00F0C6FDA3
:102DC00042E0002C11BF012C9DED040B02B0BDECC4
:102DD000028B04BF04B070BD022C38D0032C3BD052
:102DE0000B439FED491B9FED4A0B0AD0B14218D10E
:102DF000B04209D121F0804120F080400791059038
:102E00000FE0002A15DA10E0434B7B44002C08BF8A
:102E100093ED000B0DD0012C10D0022C17D0032CF9
:102E20001AD0B0421DD1002A03DAB0EE410AF0EE0A
:102E3000610A02B0BDEC028B04B070BD93ED000BD3
:102E400051EC100B81F0004141EC100BF1E7B0EEBA
:102E5000480AF0EE680AECE7B0EE420AF0EE620AC9
:102E6000E7E7401A00153C28C8BF8DED000B19DCC0
:102E7000BCF1000FBEBF10F13C0F9FED290B8DED93
:102E8000000B0FDB9DED060B53EC102B9DED040B9F
:102E900051EC100BFDF708FB00F060FD00F056FD53
:102EA000CDE90001002C08BF9DED000BC1D0012C25
:102EB00010D0022C9FED1C0B53EC102B9DED000B42
:102EC00051EC100B0DD0FDF777FA53EC182BFDF7F2
:102ED00073FAB9E7019880F0004001909DED000B76
:102EE000A7E7FDF769FA53EC182BFDF768FAABE793
:102EF0000000F07F00000000182D4454FB21094021
:102F0000182D4454FB2109C0182D4454FB21F9BF4E
:102F1000182D4454FB21F93F5A180000000000000E
:102F20000000000000000000075C143326A6A13C4E
:102F300070B504462DED028B4D1E00EBC500B0EEC2
:102F4000408AF0EE608A90ED000B35F0060017D055
:102F500053EC182B51EC100BFDF734FA41EC100B2D
:102F60006D1E04EBC50090ED001B51EC100B53ECF3
:102F7000112BFDF780F941EC100B35F00600E7D17D
:102F8000022D36D0042D1CD0062D1CBFBDEC028BAB
:102F900070BD53EC182B51EC100BFDF713FA94EDA8
:102FA0000A1B53EC112BFDF766F953EC182BFDF7B8
:102FB00009FA94ED081B53EC112BFDF75CF941EC79
:102FC000100B53EC182B51EC100BFDF7FBF994EDA3
:102FD000061B53EC112BFDF74EF953EC182BFDF7A4
:102FE000F1F994ED040B53EC102BFDF744F941EC8F
:102FF000100B53EC182B51EC100BFDF7E3F994ED8B
:10300000021B53EC112BFDF736F953EC182BFDF78F
:10301000D9F994ED001B53EC112BFDF72CF9BDEC05
:10302000028B41EC100B70BD10B553EC102B51EC22
:10303000100BFDF720F941EC100B10BD10B553EC4F
:10304000112B51EC100BFDF716F941EC100B10BDD4
:103050009FED050B10B553EC102B51EC100BFDF749
:10306000B1F941EC100B10BD000000000000001091
:1030700002E008C8121F08C1002AFAD17047704741
:10308000002001E001C1121F002AFBD1704700009F
:103090002DE9FF5F82B00021DDE90430020DDDF88B
:1030A00040B0034318D044F61050A2F2FF3242431E
:1030B0001514119801281FD0A5EB0B00401C5FEAE6
:1030C000000A4FF000064E4FDFF83891B0465046E8
:1030D00015D5CAF1000413E0119801244AA3012870
:1030E00001D16FEA0B010298119AC0E90031C0E9E1
:1030F000024206B0BDE8F09FCBF10000DFE70446D6
:103100000021404A491842EB0450CDE9001012E07A
:10311000E00707D032463B4640464946FDF752F9A4
:103120008046894632463B4610461946FDF74AF925
:1031300006460F466410002CEAD1DDE90401DDE902
:103140000023BAF1000F06DAFDF73CF942464B4680
:10315000FDF738F905E0FDF7A7F942464B46FDF7C4
:10316000A3F904460E460022284BFDF71FFA03D8A8
:103170004FF0FF30014607E00022254B2046314644
:10318000FDF779F8FDF721FB102409E0002C0ADB9C
:103190000A220023FDF71AF8039B30321A55641EE9
:1031A00050EA0102F2D1641C039AC4F111031444E1
:1031B000119A012A03D0012208430DD10AE00843E5
:1031C00004D000204FF0110B119072E7A3EB0B0518
:1031D0006D1E0DE05B4504DD4FF0000205F10105B9
:1031E00004E003DA4FF00002A5F10105002AECD05B
:1031F00002981199C0E90231C0E9004579E7000061
:10320000000014400000F03F300000000000F043D8
:103210000000E03F2DE9FF4F95B09B4689460646EA
:1032200000250FE2252877D100242746F84A0121FE
:10323000059400E0044316F8013F203B01FA03F037
:103240001042F7D130782A2811D06FF02F03307850
:10325000A0F13002092A16D8059A44F0020402EBC4
:10326000820203EB42021044761C0590EFE759F806
:10327000042B0592002A03DA504244F400540590CE
:1032800044F00204761C30782E2816D116F8010F6F
:1032900044F004042A280DD06FF02F023078A0F1FA
:1032A0003003092B09D807EB870302EB4303C71848
:1032B000761CF3E759F8047B761C30786C280FD025
:1032C00006DC4C2817D068280DD06A2814D104E0F9
:1032D000742810D07A280FD10DE044F400140AE0CD
:1032E00044F4801401E044F440147278824202D124
:1032F00004F58014761C761C307866280BD013DC1D
:10330000582877D009DC002875D04528F6D0462803
:10331000F4D047281AD19DE118E0632835D06428FD
:1033200079D0652812D195E1702873D008DC672820
:10333000F1D069286FD06E280DD06F2806D1B5E086
:1033400073282CD0752875D0782874D05A461799D0
:1033500090476D1C75E1C4F30250022809D0032880
:103360000DD0D9F8001004280DD00D6009F1040922
:1033700067E1D9F80010EA17C1E90052F6E7D9F879
:1033800000100D80F2E70D70F0E719F8041B8DF8BE
:10339000001000208DF80100EA46012003E059F8F2
:1033A00004AB4FF0FF3061074FF0000102D40DE095
:1033B00008F101018846B9420FDA8045F8DB1AF8B6
:1033C00008100029F4D108E008F101018846814283
:1033D000FADB1AF808100029F6D105985B46A0EB35
:1033E000080721463846179A00F094FA284400EB63
:1033F000080507E04DE029E10DE01AF8010B5A46F7
:1034000017999047B8F10108F7D25B462146384634
:10341000179A13E142E00A220092C4F302524FF0DD
:10342000000A022A08D059F804CB032A4FEAEC71AB
:103430000AD00DE029E02AE009F1070121F0070296
:10344000F2E802C1914609E00FFA8CFC4FEAEC71F8
:10345000042A03D14FFA8CFC4FEAEC71002907DAF9
:103460000A460021DCF1000C61EB02012D2202E092
:10347000220504D52B228DF80420012203E0E20767
:1034800001D02022F7E7904659E00A2102E01022FD
:103490000DE010214FF0000A00910BE010224FF0D8
:1034A000000A44F004040827009203E008224FF0C9
:1034B000000A0092C4F30252022A05D059F804CB44
:1034C0000021032A08D009E009F1070121F00702D1
:1034D000F2E802C1914605E01FFA8CFC042A01D1F2
:1034E0000CF0FF0C4FF00008220728D5702806D0FA
:1034F000009B83F0100353EA0A0305D00EE040223C
:103500008DF80420012208E05CEA010206D0302296
:103510008DF804208DF8050002229046009B83F070
:10352000080353EA0A030AD15CEA010201D16207E7
:1035300005D530228DF804204FF001087F1E582851
:1035400004D034A003900EA802900DE036A0F9E755
:1035500053466046009AFCF739FE84460398825C25
:103560000298401E029002705CEA0100F0D10298BD
:1035700006A9081A00F1200A600702D524F4803455
:1035800000E00127574502DDA7EB0A0000E000201C
:1035900000EB0A01009005984144401A0590E003B1
:1035A00006D45B462146179A059800F0B3F9054406
:1035B000002706E001A85A46C05D179990476D1C88
:1035C0007F1C4745F6DBE0030CD55B462146179A86
:1035D000059800F09FF9054404E030205A461799F9
:1035E00090476D1C0099481E00900029F5DC08E00A
:1035F000029802995A460078491C029117999047FF
:103600006D1CBAF10001AAF1010AF1DC65E10000CC
:1036100009280100303132333435363738396162A8
:10362000636465660000000030313233343536376C
:1036300038394142434445460000000000F058F943
:103640000544761C307800287FF4ECAD19B028468C
:10365000BDE8F08F620700D4062709F1070222F0C7
:10366000070CFCE80223E14603F000485FEA080C7F
:1036700002D00FF2702C0DE05FEA045C02D50FF26D
:10368000682C07E05FEAC47C02D00FF2602C01E0F6
:10369000AFF2700C4FF0FF3823F00043CDF850C06C
:1036A00065280CD006DC452809D046281DD04728BF
:1036B0003DD13DE0662818D067287ED138E0002152
:1036C000112F01DB112000E0781CCDE9000106A9D3
:1036D0000EA8FFF7DDFCDDE90F010E9A0391002132
:1036E000009207F1010A04914DE04FF0004000976D
:1036F000CDE9011006A90EA8FFF7CAFCDDE90F020B
:1037000003920E9B11990022DDF80CA00093049205
:1037100011B9791C00EB010AB7EB0A0004D4C0F11F
:10372000FF3007F1010A0490AAEB0700019044E082
:10373000012F00DA01270021112F01DD112000E007
:103740003846CDE9000106A90EA8FFF7A1FCDDE986
:103750000F010E9A0391002104910092BA462107AD
:103760000CD40399514500DA8A46BAF1010F05DD00
:10377000009AAAF10101515C302908D0B84202DA5E
:1037800010F1040F06DA0121CDE9011015E0AAF1CC
:103790000101E9E7002805DC049901440491AAEB42
:1037A000000102E0411C514500DD8A460499401A9F
:1037B000401C01904FF000400290200704D4019873
:1037C000504501DBCDF8048000208DF84F000298B1
:1037D0000DF14F07B0F1004F25D02B200E9002982D
:1037E0004FF0020800280CDA404202902D200E9083
:1037F00007E00A210298FCF70DFF3031029007F82C
:10380000011DB8F10001A8F10108F2DC02980028BE
:10381000EFD1791E0E980870307800F0200040F04B
:10382000450007F8020D12A8C01B00F10708149804
:10383000007800B1012000EB0A01019801EBE07172
:1038400005984144401A401E0590E00306D45B46AB
:103850002146179A059800F05DF805441498007801
:1038600018B15A46179990476D1CE00324D55B4662
:103870002146179A059800F04DF805441CE004987D
:10388000002807DBDDE90301884203DD0098405C86
:10389000179901E0179930205A469047049805F18E
:1038A0000105401C04900198401E019004D12E2077
:1038B0005A46179990476D1CBAF10001AAF1010A06
:1038C000DDDC05E017F8010B5A46179990476D1C8F
:1038D000B8F10001A8F10108F4DC5B462146179A13
:1038E0000598ABE62D0000002B0000002000000032
:1038F0002DE9F041044600251E461746880404D4ED
:1039000005E039462020B0476D1C641EF9D52846D5
:10391000BDE8F0812DE9F041044600251E469046A1
:10392000C80301D5302700E02027880404D505E02E
:1039300041463846B0476D1C641EF9D52846BDE89F
:10394000F0810A68531C0B601070704710B541EC91
:10395000100BFFF789F851EC100B10BD82B0CDE9C8
:10396000000121F0004001909DED000B02B051ECF0
:10397000100B704770B503460C46154664210022B3
:103980000E480F4E366840F826300D480068401C3F
:103990000B4E306030460068884201D10020306014
:1039A000002005E0054E56F820603244461CF0B277
:1039B0008842F7DB92FBF1F070BD0000F8010020B7
:1039C0000C00002070B503460C4615466421002209
:1039D0000E480F4E366840F826300D480068401CEF
:1039E0000B4E306030460068884201D100203060C4
:1039F000002005E0054E56F820603244461CF0B227
:103A00008842F7DB92FBF1F070BD000088030020D4
:103A10001400002070B52DED0E8B0446F0EE408AA8
:103A2000B0EE608A00EE104AB8EEC00A10EE105AEE
:103A300018EE100AFCF7A7FD41EC1E0B9FED140BCE
:103A400053EC102BFCF7BBFC41EC1C0B2846FCF79D
:103A50009AFD41EC1D0B53EC1C2BFCF7B3FC41EC25
:103A60001A0B28EE880A10EE101A0846FCF78BFD98
:103A700041EC1B0B53EC1A2BFCF7FDFB41EC190B33
:103A8000FCF7ACFD00EE100ABDEC0E8B70BD000023
:103A9000000000000000F03F70B503460C461546DC
:103AA000642100220E480F4E366840F826300D483B
:103AB0000068401C0B4E306030460068884201D1DF
:103AC00000203060002005E0054E56F820603244AA
:103AD000461CF0B28842F7DB92FBF1F070BD0000AB
:103AE000C80900203400002070B503460C46154676
:103AF000642100220E480F4E366840F826300D48EB
:103B00000068401C0B4E306030460068884201D18E
:103B100000203060002005E0054E56F82060324459
:103B2000461CF0B28842F7DB92FBF1F070BD00005A
:103B3000580B00203C00002070B503460C4615468B
:103B4000642100220E480F4E366840F826300D489A
:103B50000068401C0B4E306030460068884201D13E
:103B600000203060002005E0054E56F82060324409
:103B7000461CF0B28842F7DB92FBF1F070BD00000A
:103B8000E80C0020440000201FB5002003906420B2
:103B9000012103AA0B46CDE90021029060223D21BC
:103BA0002548FDF701FA254908700120039064209B
:103BB000012103AA0B46CDE90021029062223D219A
:103BC0001D48FDF7F1F91D490870572003900A20A0
:103BD000FCF7B0FE6420012103AA0B46CDE90021C9
:103BE0000290202233211448FDF7DEF913490870B2
:103BF000012003906420012103AA0B46CDE9002196
:103C00000290232233210C48FDF7CEF90B490870AE
:103C10000C2003900A20FCF78DFE6420012103AAEA
:103C20000B46CDE90021029060223D210248FDF7BC
:103C3000BBF9024908701FBD840E00204800002017
:103C400010B5FFF7A1FF10BD2DED0A8BDCB00026EB
:103C50000027B04600BF00BF00BF00BF00BF00BFCD
:103C600000BF00BF00BFFDF7B3FAFEF755FCFEF73B
:103C700067FBFEF7D7FBFEF7B7FBFEF7F7FBFFF797
:103C8000DFFF9822D64936A8FCF7D1FA6423082230
:103C900036A9D448FEF78EF8A1E10121D248FCF7FD
:103CA00047FF0128F8D1002581E000F0FBF900F082
:103CB00055FA4FF0F0094FF0320ACC49B1F9020041
:103CC00052464946FFF756FE00B2C8494880B1F94E
:103CD000040052464946FFF775FE00B2C34988808A
:103CE000C349B1F9000052464946FFF7D5FE00B27C
:103CF000BF490880B1F9020052464946FFF7F4FE79
:103D000000B2BB494880B1F9040052464946FFF76A
:103D100013FF00B2B64988809FEDB60AF0EE40BAB4
:103D2000B249B1F90000F0EE6B0AB0EE480AFFF7B5
:103D300071FEB0EE408AAD49B1F90200F0EE6B0AB7
:103D4000B0EE680AFFF766FEF0EE408AA749B1F9C7
:103D50000400F0EE6B0AB0EE490AFFF75BFEB0EE2E
:103D6000409A9FEDA40AB0EE40CAA149B1F9000003
:103D7000F0EE4C0AB0EE690AFFF74CFEF0EE409A06
:103D80009B49B1F90200F0EE4C0AB0EE4A0AFFF787
:103D900041FEB0EE40AA9649B1F90400F0EE4C0A9B
:103DA000B0EE6A0AFFF736FEF0EE40AA6D1C642DF5
:103DB000FFF67BAFBDEEC80A10EE100A00B28B49C9
:103DC0000880BDEEE80A10EE100A00B24880BDEE91
:103DD000C90A10EE100A00B28880BDEEE90A10EEA2
:103DE000100A00B282490880BDEECA0A10EE100A1D
:103DF00000B24880BDEEEA0A10EE100A00B28880D8
:103E00000846B0F9000000EE100AB8EEC00A7A4881
:103E100080ED000A0846B0F9020000EE100AB8EE84
:103E2000C00A754880ED010A0846B0F9040000EEAA
:103E3000100AB8EEC00A704880ED020A00F07CFA61
:103E40006D4890ED000ABDEEC00A10EE100A00B2F7
:103E500067490880684890ED010ABDEEC00A10EE7F
:103E6000100A00B24880644890ED020ABDEEC00A14
:103E700010EE100A00B288805C48B0F9000000EE35
:103E8000100AB8EEC00A5C4880ED000A5748B0F945
:103E9000020000EE100AB8EEC00A574880ED010A91
:103EA0005248B0F9040000EE100AB8EEC00A5248B9
:103EB00080ED020A00F0AEF94F4890ED000ABDEE29
:103EC000C00A10EE100A00B2484908804A4890ED36
:103ED000010ABDEEC00A10EE100A00B24880464842
:103EE00090ED020ABDEEC00A10EE100A00B2888002
:103EF0003F48B0F9000000EE100AB8EEC00A8DEDA0
:103F0000330A3B48B0F9020000EE100AB8EEC00ACE
:103F10008DED340A3648B0F9040000EE100AB8EE10
:103F2000C00A8DED350A0846B0F9000000EE100A0F
:103F3000B8EEC00A8DED300A0846B0F9020000EE76
:103F4000100AB8EEC00A8DED310A0846B0F9040037
:103F500000EE100AB8EEC00A8DED320ADDED352A0A
:103F60009DED342ADDED331A9DED321ADDED310A77
:103F70009DED300AFCF758FCB0EE40BAB2EE040AF0
:103F80002BEE000ABDEEC00A10EE100A0FFA80F800
:103F90001748B0F9040006A9A1E8C1011448B0F916
:103FA00002001349B1F9001000220292CDE9032169
:103FB00005900E48B0F90400CDE900020B48B0F9B5
:103FC0000230B0F900200D490AA8FEF71FFDC4B267
:103FD000642322460AA90348FDF7ECFE00BF5CE615
:103FE00020450008300F0020000402404A00002055
:103FF000500000206666663F780E0020704600087C
:1040000000B52DED060B83B0DDED031A9DED072AFB
:1040100061EE821A9DED042ADDED062A42EE621A57
:10402000B0EE611ADDED051A9DED062A61EE821AE9
:104030009DED032ADDED082A42EE621AF0EE610AD8
:10404000DDED041A9DED082A61EE821A9DED052A28
:10405000DDED072A42EE621AB0EE610A00F00EF8BA
:104060008DED000ACDED010A8DED021A9DED000ADD
:10407000DDED010A9DED021A09B000BD0EB5F0EEAE
:10408000402AF0EE601AB0EE412ACDED002ACDEDC7
:10409000011A8DED022A9DED000ADDED010A9DED6C
:1040A000021A0EBD1FB5002003906420022103AA4E
:1040B0000123CDE900210290282233212448FCF776
:1040C000DFFD244908709DF80C009DF80D1040EAB2
:1040D000012004B20A2094FBF0F000B21E490880CF
:1040E0006420022103AA0123CDE9002102902A22A3
:1040F00033211748FCF7C4FD164908709DF80C00E1
:104100009DF80D1040EA012004B20A2094FBF0F063
:1041100000B2114948806420022103AA0123CDE99D
:10412000002102902C2233210948FCF7A9FD0949FE
:1041300008709DF80C009DF80D1040EA012004B2B3
:104140000A2094FBF0F000B2034988801FBD0000F4
:10415000840E0020480000204A0000201FB50020E7
:1041600003906420022103AA0123CDE900210290DB
:1041700068223D212448FCF783FD244908709DF8FE
:104180000C009DF80D1040EA012004B20A2094FBB7
:10419000F0F000B21E4908806420022103AA012326
:1041A000CDE9002102906A223D211748FCF768FD05
:1041B000164908709DF80C009DF80D1040EA01208A
:1041C00004B20A2094FBF0F000B211494880642048
:1041D000022103AA0123CDE9002102906C223D2196
:1041E0000948FCF74DFD094908709DF80C009DF841
:1041F0000D1040EA012004B20A2094FBF0F000B256
:10420000034988801FBD0000840E00204800002064
:104210005000002070B52DED088B9CB0054648225B
:1042200043490AA8FCF703F818224149483104A879
:10423000FBF7FDFF002420E005EB840090ED000A71
:1042400010EE101A0846FCF79EF941EC190B04A871
:1042500000EBC40090ED001BB0EE410AF0EE610AE5
:1042600053EC102B51EC190BFCF7A6F841EC180B92
:10427000FCF7B4F945F82400641C032CDCDB0020B7
:1042800001900290039000243CE0002637E005EB0B
:10429000860090ED000A10EE101A0846FCF773F93C
:1042A00041EC1B0B04EB44000AA901EBC00000EB3E
:1042B000C60090ED001BB0EE410AF0EE610A53EC2F
:1042C000102B51EC1B0BFCF77DF841EC190B01A8EE
:1042D00000EB840090ED000A10EE101A0846FCF77F
:1042E00052F941EC1A0B53EC192BFBF7C4FF41ECCC
:1042F000180BFCF773F901A941F82400761C032E72
:10430000C5DB641C032CC0DB00200AE001A901EB23
:10431000800191ED000A074901EB800181ED000A5F
:10432000401C0328F2DB1CB0BDEC088B70BD000004
:10433000C0440008780E002070B52DED088B9CB0AD
:104340000546482243490AA8FBF771FF1822414954
:10435000483104A8FBF76BFF002420E005EB840044
:1043600090ED000A10EE101A0846FCF70CF941EC2B
:10437000190B04A800EBC40090ED001BB0EE410A3D
:10438000F0EE610A53EC102B51EC190BFCF714F80A
:1043900041EC180BFCF722F945F82400641C032CAF
:1043A000DCDB002001900290039000243CE000261A
:1043B00037E005EB860090ED000A10EE101A084673
:1043C000FCF7E1F841EC1B0B04EB44000AA901EBFC
:1043D000C00000EBC60090ED001BB0EE410AF0EE0D
:1043E000610A53EC102B51EC1B0BFBF7EBFF41EC7C
:1043F000190B01A800EB840090ED000A10EE101AD2
:104400000846FCF7C0F841EC1A0B53EC192BFBF7EC
:1044100032FF41EC180BFCF7E1F801A941F8240048
:10442000761C032EC5DB641C032CC0DB00200AE0D5
:1044300001A901EB800191ED000A074901EB800120
:1044400081ED000A401C0328F2DB1CB0BDEC088B98
:1044500070BD000060440008780E002000000000DD
:104460001283C0CAA145F23F1904560E2DB2AD3FCA
:10447000FCA9F1D24D6270BF9A9999999999993F87
:10448000105839B4C876F23F79E9263108AC7CBFC0
:10449000DBF97E6ABC74A3BF7B14AE47E17A743F3C
:1044A000E5D022DBF97EF63F37894160E50C66C036
:1044B0000C022B8716BB8B404A0C022B0787A0C02F
:1044C000000000000000F03FFA7E6ABC7493783F61
:1044D0007B14AE47E17A743F7B14AE47E17A84BF28
:1044E000AAF1D24D6210F03FFCA9F1D24D6250BF4B
:1044F000B81E85EB51B88EBFFCA9F1D24D62603F6A
:10450000560E2DB29DEFEF3FA245B6F3FDEE7A4079
:10451000D122DBF97E747EC077BE9F1A2FBD474043
:1045200053544152542100000000000000000000DC
:10453000000000000000000000000000000000007B
:10454000000000000000000000000000000000006B
:10455000000000000000000000000000000000005B
:10456000000000000000000000000000000000004B
:10457000000000000000000000000000000000003B
:10458000000000000000000000000000000000002B
:10459000000000000000000000000000000000001B
:1045A000000000000000000000000000000000000B
:1045B00000000000000000000000000000000102F8
:1045C00003040607080900000000010203040000BC
:1045D0004FBB610567ACDD3F182D4454FB21E93F1B
:1045E0009BF681D20B73EF3F182D4454FB21F93F0A
:1045F000E2652F227F2B7A3C075C143326A6813C90
:10460000BDCBF07A8807703C075C143326A6913C3A
:10461000C4EB98999999C9BF711623FEC671BCBFA6
:104620006D9A74AFF2B0B3BF9AFDDE522DDEADBF0E
:104630002F6C6A2C44B4A2BF0D5555555555D53F26
:10464000FF8300922449C23F6E204CC5CD45B73F41
:10465000513DD0A0660DB13FEB0D76244B7BA93FB9
:1046600011DA22E33AAD903F0000000000000000A4
:1046700053544152543A20415825642041592564ED
:1046800020415A2564204758256420475925642035
:10469000475A2564204D582564204D592564204DE6
:1046A0005A25642054454D50256420574D492564B2
:1046B000204944256420454E440D0A00DC4600088C
:1046C0000000002068000000703000084447000827
:1046D000680000200813000080300008000000007F
:1046E00000000000000000000000000000000000CA
:1046F00000000000000000000000000000000000BA
:1047000000000000000000000000000000000000A9
:104710000000000000000000000000000000000099
:104720000000000000000000000000000000000089
:104730000000000000000000100000000100000068
:044740000024F4005D
:040000050800019559
:00000001FF
