:020000040800F2
:1000000010050020A9010008D51A00089316000861
:10001000D11A0008E10200089D210008000000003C
:10002000000000000000000000000000391B000874
:10003000E502000800000000111B00083B1B00083F
:10004000C3010008C3010008C3010008C301000880
:10005000C3010008C3010008C3010008C301000870
:10006000C3010008C3010008C3010008C301000860
:10007000C3010008C3010008C3010008C301000850
:10008000C3010008C3010008C3010008000000000C
:10009000000000000000000000000000C301000894
:1000A000C3010008C3010008C3010008C301000820
:1000B000C3010008C3010008C3010008C301000810
:1000C000C3010008C3010008C3010008151B000894
:1000D000C3010008C30100088D21000800000000D2
:1000E000C3010008C3010008C301000800000000AC
:1000F000000000000000000000000000C301000834
:1001000000000000C3010008C3010008C30100088B
:1001100000000000000000000000000000000000DF
:10012000C3010008C3010008C3010008C30100089F
:10013000C3010008000000000000000000000000F3
:10014000000000000000000000000000C3010008E3
:10015000C3010008C3010008C3010008C30100086F
:10016000C3010008C30100080000000000000000F7
:10017000000000000000000000000000000000007F
:1001800000000000C30100080000000000000000A3
:10019000C3010008DFF80CD000F090F800480047D9
:1001A000F52500081005002006488047064800474E
:1001B000FEE7FEE7FEE7FEE7FEE7FEE7FEE7FEE717
:1001C000FEE7FEE7FD1B0008950100082DE9F05F42
:1001D0000546002092469B468846064681464024B6
:1001E0001BE0284641464746224600F057F8534652
:1001F0005A46C01A914110D311461846224600F0C3
:100200003EF82D1A67EB01084F46224601200021D7
:1002100000F035F817EB00094E41201EA4F101044F
:10022000DFDC484631462A464346BDE8F09FD2B25D
:1002300001E000F8012B491EFBD270470022F6E7CF
:1002400010B513460A4604461946FFF7F0FF20464C
:1002500010BD30B50B46014600202022012409E0E4
:1002600021FA02F59D4205D303FA02F5491B04FA6F
:1002700002F52844151EA2F10102F1DC30BD202A4E
:1002800004DB203A00FA02F1002070479140C2F1ED
:10029000200320FA03F3194390407047202A04DB1F
:1002A000203A21FA02F00021704721FA02F3D040EF
:1002B000C2F120029140084319467047064C074D91
:1002C00006E0E06840F0010394E807009847103426
:1002D000AC42F6D3FFF762FF6026000880260008D4
:1002E00000BFFEE770477047014691F835000228CD
:1002F00003D08020486501207047052081F8350033
:100300000868006820F001000A6810600020F3E728
:1003100070B5044600F000F906462546681C10B189
:1003200004480078054400BF00F0F6F8801BA8429E
:10033000FAD370BD18000020F8B503460A46002520
:10034000002400200021CDE0012606FA01F5166800
:1003500006EA0504AC4273D15668022E02D05668F4
:10036000122E13D1CF0803F1200656F827004E07AE
:10037000F70E0F26BE40B0434F07FF0E1669BE4072
:100380003043CF0803F1200646F8270018684F00D5
:100390000326BE40B043167906F003064F00BE4068
:1003A000304318605668012E08D05668022E05D0DA
:1003B0005668112E02D05668122E13D198684F003D
:1003C0000326BE40B0434F00D668BE40304398601D
:1003D000586801268E40B0431679C6F300168E4049
:1003E00030435860D8684F000326BE40B0434F00EA
:1003F0009668BE403043D860566806F08056B6F125
:10040000805F6ED100BF00260096384E366846F4F5
:100410008046364F3E603E46366806F4804600967B
:1004200000BF00BF324E8F0856F827008E07370FE7
:100430000F26BE40B0432F4EB34202D1002615E036
:100440004FE02D4EB34201D101260FE02B4EB342B7
:1004500001D102260AE02A4EB34201D1032605E06B
:10046000284EB34201D1042600E007268F073F0F34
:10047000BE4030431E4E8F0846F82700224E30689B
:10048000A043566806F48036B6F5803F00D120437D
:100490001D4E3060361D3068A043566806F40036A5
:1004A000B6F5003F00D12043174E361D3060361D93
:1004B0003068A043566806F48016B6F5801F00D158
:1004C0002043114E08363060361D3068A043566810
:1004D00006F40016B6F5001F00D120430A4E0C3674
:1004E0003060491C1029FFF42FAFF8BD443802409A
:1004F00008380140000002400004024000080240A9
:10050000000C024000100240003C01400AB1816131
:1005100001E00B04836170470148006870470000E8
:100520001000002070B50446002600250CB90120FB
:1005300070BD94F83D0028B9002084F83C002046A6
:1005400000F048F9242084F83D002068006820F07D
:1005500001002168086000F01BFB05463948B5FB27
:10056000F0F62068466038496068884201D8701CFF
:1005700007E04FF4967070434FF47A71B0FBF1F0DE
:10058000401C216808623049606888420ED8606863
:100590004000B5FBF0F0C0F30B00042801D20420AA
:1005A0002DE060684000B5FBF0F028E0A06828B9B5
:1005B000606800EB4000B5FBF0F008E0606800EB1D
:1005C000C00101EB0010B5FBF0F040F48040C0F337
:1005D0000B0008B9012012E0A06828B9606800EBA0
:1005E0004000B5FBF0F008E0606800EBC00101EBF3
:1005F0000010B5FBF0F040F4804040F4004021686A
:10060000C861D4E90701084321680860D4E90310F0
:10061000084321688860D4E9050108432168C8605F
:100620002068006840F00100216808600020206414
:10063000202084F83D000020206384F83E0000BFA5
:1006400076E7000040420F00A08601002DE9FC5F24
:1006500004460F4690469946DDE90CAB0E9E0025F8
:10066000FFF75AFF054694F83D0020287ED1192354
:10067000012256492046009501F0C3F810B102202E
:10068000BDE8FC9F00BF94F83C00012801D1022086
:10069000F6E7012084F83C0000BF2068006800F005
:1006A000010028B92068006840F001002168086056
:1006B0002068006820F4006021680860212084F828
:1006C0003D00402084F83E0000202064C4F824A0AF
:1006D000A4F82AB03E48E062608D20854B46424631
:1006E00039462046CDE9006500F0F0FF80B1206C6E
:1006F000042806D100BF002084F83C0000BF012080
:10070000BEE700BF002084F83C0000BF0320B7E72D
:1007100033E02A463146204601F007F960B1206CEB
:10072000042807D12068006840F400702168086040
:100730000120A5E70320A3E7616A481C60620878EE
:1007400021680861208D401E2085608D401E6085D7
:1007500020684069C0F3800078B1208D68B1616A7B
:10076000481C606208782168086100E02CE0208D58
:10077000401E2085608D401E6085208D0028C8D1D8
:100780002A463146204601F011F860B1206C042859
:1007900007D12068006840F40070216808600120DB
:1007A0006EE703206CE72068006840F40070216861
:1007B0000860202084F83D00002084F83E0000BF3F
:1007C00084F83C0000BF5BE7022059E702001000FC
:1007D0000000FFFF10B586B00446142101A8FFF702
:1007E0002DFD1B492068884230D100BF00200090B9
:1007F0001848006840F00200164908600846006882
:1008000000F00200009000BF00BF4FF44070019064
:1008100012200290012003900320049004200590F0
:1008200001A90D48FFF788FD00BF0020009009488E
:100830001030006840F40010064910310860084686
:10084000006800F40010009000BF00BF06B010BDAB
:100850000054004030380240000402400348006861
:1008600003490978084401490860704710000020D6
:100870001800002010B50D48006840F400700B49C6
:1008800008600846006840F4806008600846006818
:1008900040F480700860032000F0A0F8002000F011
:1008A00007F800F02BF8002010BD0000003C0240CB
:1008B00070B504460E4800784FF47A71B1FBF0F041
:1008C0000C490968B1FBF0F5284600F02DFD08B190
:1008D000012070BD102C07D200222146501E00F0CE
:1008E0003EF80548046001E00120F2E70020F0E74F
:1008F000180000201C0000201400002008B500BFD4
:10090000002000900E48006840F480400C490860C8
:100910000846006800F48040009000BF00BF00BFA0
:1009200000200090081F006840F08050091F0860F8
:100930000846006800F08050009000BF00BF08BD6E
:100940004438024000BF00F01F02012191404209DB
:10095000920002F1E022C2F8001100BF70472DE9B9
:10096000F05F80460D461646002701F0B5F80746B1
:1009700039462A46334601F00700C0F1070ABAF1AA
:10098000040F02D94FF0040A01E0C0F1070AD14672
:1009900000F1040ABAF1070F02D24FF0000A01E099
:1009A000A0F1030AD4464FF0010A0AFA09FAAAF1A3
:1009B000010A0AEA020A0AFA0CFA4FF0010B0BFAD2
:1009C0000CFBABF1010B0BEA030B4AEA0B042146CB
:1009D000404601F089F8BDE8F09F000000BF00F03C
:1009E0000702064B19684FF6FF031940044B0B43EF
:1009F00043EA0221014B196000BF70470CED00E093
:100A00000000FA0570B504460D460CB9012070BD12
:100A10005848006800F00F00A84209D255490D70EF
:100A20000846006800F00F00A84201D00120EEE760
:100A3000207800F0020002281DD1207800F0040088
:100A4000042805D14C48006840F4E0504A49086049
:100A5000207800F00800082805D14748006840F4D5
:100A60006040454908604448006820F0F000A168F3
:100A7000084341490860207800F00100A8B360688D
:100A8000012807D13C4808380068C0F34040B8B995
:100A90000120BCE76068022802D06068032807D103
:100AA000354808380068C0F3406048B90120AEE717
:100AB000314808380068C0F3400008B90120A6E7B3
:100AC0002D48006820F00300616808432A49086047
:100AD000FFF722FD064609E0FFF71EFD801B41F2ED
:100AE0008831884202D9032091E707E02248006854
:100AF00000F00C006168B0EB810FEDD11D4800687B
:100B000000F00F00A84209D91A490D700846006884
:100B100000F00F00A84201D0012078E7207800F013
:100B20000400042807D11448006820F4E050E1686C
:100B3000084311490860207800F00800082808D10F
:100B40000D48006820F46040216940EAC1000A496C
:100B5000086000F03DF808490968C1F30311074A2D
:100B6000515CC840064908600020FFF7A1FE002044
:100B70004DE70000003C02400838024048260008CB
:100B80001C00002001480068704700001C00002085
:100B900000B5FFF7F7FF04490968C1F38221034A52
:100BA000515CC84000BD00000838024058260008CB
:100BB00000B5FFF7E7FF04490968C1F34231034A72
:100BC000515CC84000BD00000838024058260008AB
:100BD0002DE9F047002400250026A146254800689D
:100BE00000F00C0020B1042805D008283AD105E017
:100BF000DFF8849039E0DFF8849036E01D48001F6C
:100C0000006800F03F041B48001F006800F48000EB
:100C100078B11A481749091F0968C1F38811A0FB68
:100C200001700146224600233846FFF7CFFA0546F9
:100C30000EE011480F49091F0968C1F38811A0FB94
:100C400001700146224600233846FFF7BFFA0546E9
:100C50000848001F0068C0F30140401C4600B5FB77
:100C6000F6F902E0DFF8109000BF00BF4846BDE88B
:100C7000F0870000083802400024F40040787D012D
:100C8000F8B504460CB90120F8BD207800F0010049
:100C9000002874D0F948006800F00C0004280DD03A
:100CA000F648006800F00C00082813D1F348001F34
:100CB000006800F48000B0F5800F0BD1EF480838D1
:100CC0000068C0F34040002859D06068002856D121
:100CD0000120D9E700BF6068B0F5803F08D1E74840
:100CE0000838006840F48030E449083908601EE0A4
:100CF0006068B0F5A02F0DD1E0480838006840F4D6
:100D00008020DE49083908600846006840F48030D9
:100D100008600CE0D9480838006820F48030D749D2
:100D2000083908600846006820F48020086000BF89
:100D3000606890B1FFF7F0FB054606E0FFF7ECFBBB
:100D4000401B642801D903209EE7CC48083800687E
:100D5000C0F340400028F1D011E0FFF7DDFB05466D
:100D600006E0FFF7D9FB401B642801D903208BE77D
:100D7000C24808380068C0F340400028F1D120780C
:100D800000F0020002285FD1BC48006800F00C00AF
:100D900058B1BA48006800F00C0008281CD1B748C8
:100DA000001F006800F48000B0B9B448083800683B
:100DB000C0F3400020B1E068012801D0012063E7C2
:100DC000AE480838006820F0F800216940EAC10008
:100DD000AA490839086037E0E06800B30120A84953
:100DE0000860FFF799FB054606E0FFF795FB401BFF
:100DF000022801D9032047E7A04808380068C0F35B
:100E000040000028F1D09D480838006820F0F80024
:100E1000216940EAC10099490839086014E00020BE
:100E200097490860FFF778FB054606E0FFF774FB7B
:100E3000401B022801D9032026E7904808380068A3
:100E4000C0F340000028F1D1207800F00800082805
:100E50002CD16069A8B101208A490860FFF75CFBCA
:100E6000054606E0FFF758FB401B022801D9032086
:100E70000AE782486C300068C0F340000028F1D0D7
:100E800014E000207F490860FFF746FB054606E0B6
:100E9000FFF742FB401B022801D90320F4E6774804
:100EA0006C300068C0F340000028F1D1207800F0D9
:100EB0000400042870D1002670483830006800F023
:100EC000805090B900BF002000906C483830006816
:100ED00040F080506949383108600846006800F0E9
:100EE0008050009000BF00BF01266748006800F4F2
:100EF0008070B0B96448006840F48070624908604E
:100F0000FFF70AFB054606E0FFF706FB401B022839
:100F100001D90320B8E65C48006800F4807000281E
:100F2000F2D000BFA068012808D15448683000689A
:100F300040F001005149683108601DE0A0680528B3
:100F40000DD14E486830006840F004004B496831CC
:100F500008600846006840F0010008600CE047485F
:100F60006830006820F00100444968310860084694
:100F7000006820F00400086000BFA068A8B1FFF777
:100F8000CBFA054609E0FFF7C7FA401B41F288316A
:100F9000884202D9032077E626E0384868300068A6
:100FA000C0F340000028EED013E0FFF7B5FA054685
:100FB00008E0FFF7B1FA401B41F28831884201D9BD
:100FC000032061E62D4868300068C0F34000002827
:100FD000EFD1012E07D129483830006820F0805029
:100FE00026493831086000BFA069B8B323480068BB
:100FF00000F00C0008285ED0A069022846D100202D
:101000001F490866FFF788FA054606E0FFF784FAED
:10101000401B022801D9032036E61848083800682A
:10102000C0F340600028F1D1D4E907010843616AA8
:1010300040EA81110122A06AC2EB500041EA00415E
:101040002C20005D41EA00600C49091F0860012066
:101050000B490866FFF760FA054607E02DE0FFF749
:101060005BFA401B022801D903200DE6034808382B
:101070000068C0F340600028F1D01EE0083802404C
:1010800000004742800E47420070004000200C499B
:101090000866FFF741FA054606E0FFF73DFA401BF8
:1010A000022801D90320EFE506480068C0F340603C
:1010B0000028F2D101E00120E6E50020E4E500008F
:1010C000000047420038024070470000F8B504466F
:1010D000206846682068856805F0400048B905F03A
:1010E000010030B106F0400018B12046216C88475D
:1010F000F8BD05F0020030B106F0800018B12046BE
:10110000616C8847F4E705F4B070002876D006F0EB
:101110002000002872D005F04000F0B194F8510092
:1011200003280ED0606D40F00400606500BF002011
:1011300000902068C068009020688068009000BF20
:101140000BE000BF002000902068C068009020687D
:101150008068009000BF00BFCAE705F0200088B19A
:10116000606D40F00100606500BF002000902068C5
:10117000806800902068006820F0400021680860C6
:1011800000BF00BF05F4807058B1606D40F00800EA
:10119000606500BF0020009020688068009000BF5C
:1011A00000BF606D20B32068406820F0E000216837
:1011B0004860012084F8510006F0020010B906F0E2
:1011C0000100B8B12068406820F003002168486041
:1011D000E06C28B10A48E16C0865E06CFFF784F820
:1011E000A06C28B10648A16C0865A06CFFF77CF8DC
:1011F00003E003E02046FFF767FF79E700BF77E7EA
:10120000251B000810B504460CB9012010BD606A0A
:1012100000B900BF0021A16294F8510028B9002054
:1012200084F85000204600F033F8022084F8510082
:101230002068006820F0400021680860D4E90101BE
:101240000843E16808432169084361690843218B29
:1012500001F400710843E1690843216A0843A16A67
:101260000843216808600421A06901EA1040616A0E
:101270000843216848602068C06920F40060216844
:10128000C86100206065012084F851000020BDE79E
:1012900010B586B00446142101A8FEF7CFFF1F4900
:1012A0002068884237D100BF002000901C480068A9
:1012B00040F480501A4908600846006800F48050E5
:1012C000009000BF00BF00BF0020009014481438F9
:1012D000006840F0010012491439086008460068AF
:1012E00000F00100009000BF00BFE020019002204C
:1012F000029000200390032004900520059001A98E
:101300000848FFF719F8002211462320FFF727FBB2
:101310002320FFF717FB06B010BD0000003001408E
:10132000443802400000024070B504462546681E5D
:10133000B0F1807F01D301200FE0681E4FF0E02163
:1013400048610F214FF0FF3000F0CEFB00204FF03E
:10135000E021886107200861002070BD704700000F
:101360002DE9F0470446206805682068C6682068B3
:1013700047694FF00008C14605F00F08B8F1000FAB
:101380000AD105F0200038B106F0200020B1204637
:1013900000F090FCBDE8F087B8F1000F6DD007F0C9
:1013A000010018B906F49070002866D005F001001D
:1013B00030B106F4807018B1E06B40F00100E063DA
:1013C00005F0040030B107F0010018B1E06B40F007
:1013D0000200E06305F0020030B107F0010018B12F
:1013E000E06B40F00400E06305F0080030B107F066
:1013F000010018B1E06B40F00800E063E06B68B3F7
:1014000005F0200028B106F0200010B1204600F0C1
:1014100051FC20684069C0F38019E06B00F00800BF
:1014200010B9B9F1000F22D0204600F023FC20684B
:10143000406900F04000B0B12068406920F04000F1
:1014400021684861606B50B11748616B0865606B3B
:10145000FEF74AFF10B1606B016D88470CE0204633
:10146000FFF77CFF08E02046FFF778FF04E0204606
:10147000FFF774FF0020E0638CE705F0800030B1D7
:1014800006F0800018B1204600F016FE82E705F055
:10149000400030B106F0400018B1204600F0FAFBE1
:1014A00078E700BF76E70000611C000810B504462D
:1014B0000CB9012010BDA06900B100E000BF94F894
:1014C000390028B9002084F83800204600F028F8B8
:1014D000242084F839002068C06820F40050216876
:1014E000C860204600F034FC2068006920F4904079
:1014F000216808612068406920F02A00216848615D
:101500002068C06840F400502168C8600020E06393
:10151000202084F8390084F83A000020CAE700004F
:1015200010B586B00446142101A8FEF787FE1F49B6
:101530002068884237D100BF002000901C48006816
:1015400040F400301A4908600846006800F4003092
:10155000009000BF00BF00BF00200090144810386A
:10156000006840F001001249103908600846006820
:1015700000F00100009000BF00BF0C20019002208D
:10158000029001200390032004900720059001A9F8
:101590000848FEF7D1FE002211462620FFF7DFF9AA
:1015A0002620FFF7CFF906B010BD00000044004030
:1015B000403802400000024070472DE9F8430446DD
:1015C0000D4616461F464FF0000994F839002028B2
:1015D0005CD105B116B90120BDE8F88300BF94F8CD
:1015E0003800012801D10220F6E7012084F83800F4
:1015F00000BF0020E063212084F83900FEF78CFF53
:101600008146A684E6842BE0E08C401EE084A0683E
:10161000B0F5805F16D14B4600228021204600970E
:1016200000F07EFD08B10320D6E7A846B8F8000018
:10163000C0F3080021684860206908B9AD1C0FE0BC
:101640006D1C0DE04B46002280212046009700F0E3
:1016500067FD08B10320BFE715F8010B216848605A
:10166000E08C0028D0D14B46002240212046009734
:1016700000F056FD08B10320AEE7202084F83900C1
:1016800000BF002084F8380000BFA5E70220A3E7D0
:10169000704700BFFEE7014608684069C0F380203C
:1016A00088B16FF480600A685061042008640020EB
:1016B0000863202081F83D0000BF002081F83C0035
:1016C00000BF012070470020FCE700002DE9F8432F
:1016D0000446884615469946DDE908672068006893
:1016E00040F4807021680860334600224FF00111F9
:1016F0002046009700F085F810B10320BDE8F8837C
:1017000008F0FE00216808613B4632462649204623
:1017100000F0B5F830B1206C042801D10120EDE7CC
:101720000320EBE700BF0020009020684069009094
:1017300020688069009000BF00BF3A4631462046CD
:1017400000F0F3F860B1206C042807D1206800682D
:1017500040F40070216808600120CFE70320CDE746
:10176000B9F1010F03D1E8B22168086119E0C5F3AE
:101770000720216808613A463146204600F0D5F836
:1017800060B1206C042807D12068006840F4007024
:10179000216808600120B1E70320AFE7E8B22168C3
:1017A00008610020AAE700000200010070B50446AD
:1017B0000D4616461DE02046FFF76DFF08B10120DB
:1017C00070BD681CA8B125B1FEF7A6FE801BA8421B
:1017D0000FD9206C40F020002064002020632020DE
:1017E00084F83D0000BF002084F83C0000BF0320C7
:1017F000E6E720684069C0F380000028DBD00020C5
:10180000DEE72DE9F04104460D4617461E46DDF899
:10181000188017E0701CA8B12EB1FEF77DFEA0EB7A
:101820000800B0420ED900202063202084F83D003B
:10183000002084F83E0000BF84F83C0000BF032075
:10184000BDE8F081C5F3074001280AD1206840694E
:10185000A9B20840A9B2884201D101200BE00020C2
:1018600009E020688069A9B20840A9B2884201D184
:10187000012000E00020B842CCD00020E0E72DE9B4
:10188000F04104460D4616461F4631E02068406987
:10189000C0F38020C0B12068006840F40070216867
:1018A00008606FF480602168486104202064002093
:1018B0002063202084F83D0000BF002084F83C0015
:1018C00000BF0120BDE8F081701C88B126B1FEF791
:1018D00023FEC01BB0420BD900202063202084F8D7
:1018E0003D0000BF002084F83C0000BF0320E9E772
:1018F000C5F3074001280AD120684069A9B2084011
:10190000A9B2884201D101200BE0002009E0206843
:101910008069A9B20840A9B2884201D1012000E043
:1019200000200028B2D00020CCE770B504460D4658
:1019300016461DE02046FFF7AEFE08B1012070BD3F
:10194000681CA8B125B1FEF7E7FD801BA8420FD99E
:10195000206C40F02000206400202063202084F8C8
:101960003D0000BF002084F83C0000BF0320E6E7F4
:1019700020684069C0F3C0100028DBD00020DEE7FB
:1019800000B587B0142102A8FEF758FC00BF002064
:1019900001901E48006840F080001C49086008461D
:1019A000006800F08000019000BF00BF00BF002071
:1019B00001900846006840F0010008600846006891
:1019C00000F00100019000BF00BF00BF00200190A7
:1019D0000846006840F0020008600846006800F011
:1019E0000200019000BF00BF002240210848FEF71E
:1019F0008DFD40200290012003900020049005906E
:101A000002A90348FEF798FC07B000BD3038024039
:101A10000004024010B50B480B4908600B484860B1
:101A2000002109488160C1604FF4804101610021BB
:101A300041618161C1610162FEF774FD08B1FEF789
:101A400052FC10BD0054004020000020A086010080
:101A500010B50F480F4908604FF4827048600021AC
:101A60000C488160C160022101610121416149028C
:101A700081611021C16100210162416281620A21FC
:101A8000C162FFF7BFFB08B1FEF72DFC10BD0000DF
:101A9000003001407400002010B50B480B4908606D
:101AA0004FF4E1304860002108488160C160016165
:101AB0000C21416100218161C161FFF7F7FC08B190
:101AC000FEF711FC10BD000000440040CC000020D7
:101AD00000BFFEE77047000002480068C0F3022024
:101AE000704700000CED00E010B5002807DA0A0787
:101AF000140E054A00F00F031B1FD45403E00A071D
:101B0000130E024A135410BD18ED00E000E400E08B
:101B10007047000010B50248FFF7D8FA10BD00006A
:101B20007400002070B50546AC6B0020E087E086AD
:101B30002046FFF7C9FA70BD704710B5FEF78EFE5C
:101B400010BD000000B593B0302107A8FEF776FB6A
:101B5000142102A8FEF772FB00BF00200190254867
:101B6000006840F08050234908600846006800F093
:101B70008050019000BF00BF00BF002001901E48B0
:101B8000006820F4404040F400401B4908600846CB
:101B9000006800F44040019000BF00BF02200790A1
:101BA00001200A9010200B9002200D9000210E9130
:101BB00008210F91542110910221119104211291B9
:101BC00007A8FFF75DF808B1FEF78DFB0F20029024
:101BD00002200390002004904FF4805005900020D4
:101BE0000690022102A8FEF70DFF08B1FEF77BFB6D
:101BF00013B000BD40380240007000401448006837
:101C000040F47000124908601248006840F001007A
:101C10001049086000200F49083108600D4800682D
:101C20000D4908400B4908600C48091D0860081F51
:101C3000006820F48020091F0860002005490C314D
:101C400008604FF00060024980390860704700006A
:101C500088ED00E000380240FFFFF6FE103000245F
:101C600070B50546AC6B0020E085E0842046FFF7A8
:101C700075FB70BD0168C96821F490710268D1607C
:101C80000168496921F0010102685161202180F851
:101C90003A10704710B504462068C06820F0400034
:101CA0002168C860202084F839002046FFF7F0FC46
:101CB000002010BD70B5044694F83A00222844D1A3
:101CC000A068B0F5805F13D1A56A206940B920688B
:101CD0004068C0F308002880A06A801CA06219E058
:101CE00020684068C0B22880A06A401CA06211E051
:101CF000206938B920684068C1B2A26A501CA0624D
:101D0000117007E02068406800F07F01A26A501C53
:101D1000A0621170E08D401E80B2E08598B9206805
:101D2000C06820F490702168C8602068406920F085
:101D3000010021684861202084F83A002046FFF71E
:101D40003BFC002070BD0020FCE70220FAE7000009
:101D50002DE9F041044600252068056925F4405529
:101D6000E0680543206805612068C56849F20C6099
:101D700085432169A068084361690843E169084314
:101D800005432068C5602068456925F44075A06951
:101D9000054320684561E069B0F5004F7ED1C44934
:101DA0002068884203D0C349206888425DD1FEF78D
:101DB000FFFE00EBC00101EB001061684900B0FBC1
:101DC000F1F06421B0FBF1F00601FEF7F1FE00EB4B
:101DD000C00101EB001061684900B0FBF1F7FEF7AC
:101DE000E7FE00EBC00101EB001061684900B0FBA9
:101DF000F1F06421B0FBF1F000EBC00101EB001049
:101E0000A7EB8000322101EBC0006421B0FBF1F0B0
:101E100000F0F80006EB4006FEF7CAFE00EBC0013A
:101E200001EB001061684900B0FBF1F7FEF7C0FE5E
:101E300000EBC00101EB001061684900B0FBF1F05C
:101E40006421B0FBF1F000EBC00101EB0010A7EB47
:101E50008000322101EBC0006421B0FBF1F000F002
:101E6000070030442168886020E1FEF791FE00EB16
:101E7000C00101EB001061684900B0FBF1F0642182
:101E8000B0FBF1F00601FEF783FE00EBC00101EBB1
:101E9000001061684900B0FBF1F700E045E0FEF793
:101EA00077FE00EBC00101EB001061684900B0FB58
:101EB000F1F06421B0FBF1F000EBC00101EB001088
:101EC000A7EB8000322101EBC0006421B0FBF1F0F0
:101ED00000F0F80006EB4006FEF75AFE00EBC001EA
:101EE00001EB001061684900B0FBF1F7FEF750FE0E
:101EF00000EBC00101EB001061684900B0FBF1F09C
:101F00006421B0FBF1F000EBC00101EB0010A7EB86
:101F10008000322101EBC0006421B0FBF1F000F041
:101F20000700304421688860C0E061492068884229
:101F300003D06049206888425CD1FEF739FE00EB8F
:101F4000C00101EB001061688900B0FBF1F6FEF7FB
:101F50002FFE00EBC00101EB001061688900B0FBAF
:101F6000F1F06421B0FBF1F000EBC00101EB0010D7
:101F7000A6EB8000322101EB00106421B0FBF1F0F0
:101F800000F0F006FEF714FE00EBC00101EB0010BC
:101F900061688900B0FBF1F06421B0FBF1F006EB61
:101FA0000016FEF705FE00EBC00101EB00106168B2
:101FB0008900B0FBF1F7FEF7FBFD00EBC00101EB80
:101FC000001061688900B0FBF1F06421B0FBF1F012
:101FD00000EBC00101EB0010A7EB8000322101EB08
:101FE00000106421B0FBF1F000F00F0030442168D4
:101FF00088605BE0FEF7CCFD00EBC00101EB001058
:1020000061688900B0FBF1F6FEF7C2FD00EBC0018C
:1020100001EB001061688900B0FBF1F06421B0FBB6
:10202000F1F000EBC00101EB0010A6EB80003221C3
:1020300001EB00106421B0FBF1F000F0F006FEF7B8
:10204000A7FD00EBC00101EB001061688900B0FB47
:10205000F1F06421B0FBF1F006EB0016FEF798FDFD
:1020600000EBC00101EB001061688900B0FBF1F7E3
:10207000FEF78EFD00EBC00101EB001061688900E6
:10208000B0FBF1F06421B0FBF1F000EBC00101EB1B
:102090000010A7EB8000322101EB00106421B0FB9F
:1020A000F1F000F00F00304421688860BDE8F08155
:1020B0000010014000140140014691F83900212828
:1020C0002CD18868B0F5805F0FD10A6A1088C0F300
:1020D00008000B685860086918B9086A801C086213
:1020E00009E0086A401C086205E00B6A581C086297
:1020F00018780B685860C88C401E80B2C88458B9E4
:102100000868C06820F080000B68D8600868C06864
:1021100040F040000B68D860002070470220FCE7C8
:102120002DE9F04104460D4617469846069E21E0EB
:10213000701CF8B12EB1FEF7EFF9A0EB0800B04229
:1021400018D92068C06820F4D0702168C860206861
:10215000406920F0010021684861202084F839009E
:1021600084F83A0000BF002084F8380000BF032044
:10217000BDE8F081206800682840A84201D1012014
:1021800000E00020B842D3D00020F1E710B50248AB
:10219000FFF7E6F810BD0000CC00002000BFFEE70E
:1021A0000FB4084B10B504A902AA039800F01CF85C
:1021B000044602A9002000F0B8F9204610BC5DF8E2
:1021C00014FB00002B25000802E008C8121F08C1FC
:1021D000002AFAD170477047002001E001C1121FA8
:1021E000002AFBD1704700002DE9FF4F8BB08846D5
:1021F0000546002606E025280BD0DDE90D129047A4
:102200006D1C761C28780028F5D10FB03046BDE84B
:10221000F08F0024A146A2460122AE4900E004430B
:1022200015F8013F203B02FA03F00842F7D1287865
:102230002A2810D06FF02F022878A0F13001092948
:1022400015D809EB890102EB410144F0020400EBCF
:1022500001096D1CF0E758F8041B5FEA010903D57A
:1022600044F40054C9F1000944F002046D1C2878BC
:102270002E2817D115F8010F44F004042A280ED097
:102280006FF02F022878A0F1300109290AD80AEB53
:102290008A0102EB410100EB010A6D1CF2E758F8DC
:1022A00004AB6D1C28786C280FD006DC4C2817D0A6
:1022B00068280DD06A2814D104E0742810D07A2838
:1022C0000FD10DE044F400140AE044F4801401E05E
:1022D00044F440146978814202D104F580146D1CE5
:1022E0006D1C2878692865D006DC00288DD063280D
:1022F00027D0642806D15DE06E2808D073282AD044
:10230000752877D0DDE90D129047761CE0E0C4F324
:102310000250022809D003280DD0D8F80010042854
:102320000DD00E6008F10408D2E0D8F80010F217C2
:10233000C1E90062F6E7D8F800100E80F2E70E70EF
:10234000F0E718F8041B8DF8001000208DF801004C
:10235000EB46012003E058F804BB4FF0FF30610763
:102360004FF0000701D40AE07F1C57450DDA874281
:10237000FADB1BF807100029F6D106E07F1C874224
:10238000FCDB1BF807100029F8D1DDE90D23A9EBD0
:1023900007008146214600F0B1F83044C61904E038
:1023A000DDE90D121BF8010B90477F1EF8D2214684
:1023B000484688E058F8040BC4F302514FF00A0B6A
:1023C000032900D100B2042900D140B2002802DA6A
:1023D00040422D2102E0210505D52B218DF8241046
:1023E000012104E006E0E10710D02021F6E708AF64
:1023F000089113E058F8040BC4F302514FF00A0B94
:10240000032900D180B2042900D1C0B20021EEE737
:102410005946FDF71EFF303107F8011D0028F7D19E
:10242000ADEB070000F1200B600702D524F48034E7
:1024300001E04FF0010ADA4502DDAAEB0B0000E0F3
:102440000020824600EB0B0108980144A9EB010033
:102450000A90E00306D4DDE90D2321460A9800F036
:102460004DF806444FF0000908E009A911F80900E9
:10247000DDE90D12904709F10109761C089989459B
:10248000F3DBE0030CD5DDE90D2321460A9800F0CB
:1024900035F8064404E0DDE90D1230209047761C43
:1024A000BAF10001AAF1010AF5DC05E0DDE90D123F
:1024B00017F8010B9047761CBBF10001ABF1010B43
:1024C000F4DC0A982146DDE90D2300F005F8064406
:1024D0006D1C97E6092801002DE9F041044600250E
:1024E0001E461746880404D405E039462020B0472C
:1024F0006D1C641EF9D52846BDE8F0812DE9F04138
:10250000044600251E469046C80301D5302700E04A
:102510002027880404D505E041463846B0476D1CA5
:10252000641EF9D52846BDE8F0810A68531C0B608B
:10253000107070471FB5002003906420012103AA8A
:102540000B46CDE90021029060223D212548FEF78F
:102550007DF825490870012003906420012103AA19
:102560000B46CDE90021029062223D211D48FEF775
:102570006DF81D490870572003900A20FDF7C8FE2A
:102580006420012103AA0B46CDE9002102902022FC
:1025900033211448FEF75AF81349087001200390BC
:1025A0006420012103AA0B46CDE9002102902322D9
:1025B00033210C48FEF74AF80B4908700C200390B1
:1025C0000A20FDF7A5FE6420012103AA0B46CDE9F0
:1025D0000021029060223D210248FEF737F80249AF
:1025E00008701FBD200000200000002010B5FFF77C
:1025F000A1FF10BDA6B0FEF73DF9FFF7A3FAFFF764
:10260000BFF9FFF725FAFFF747FAFFF703FAFFF7DD
:10261000EDFF0A480068C06840F0200007490968DB
:10262000C86007A16846FFF7BBFD4FF47A73962296
:1026300069460248FEF7C1FF00BFFEE7CC0000205C
:1026400053544152542100000000000000000000DB
:102650000102030406070809000000000102030448
:10266000802600080000002020000000C82100088B
:10267000A026000820000020F0040000D821000857
:10268000000000000000000000000000000000004A
:102690000000000010000000010000000024F40011
:040000050800019559
:00000001FF
